:020000040003F7
:10C000004032002049CC030063CC030065CC030020
:10C010000000000000000000000000000000000020
:10C0200000000000000000000000000065C10300E7
:10C03000000000000000000069CC03006BCC03008E
:10C040006DCC03006DCC03006DCC03006DCC030000
:10C050006DCC0300000000006DCC03006DCC03002C
:10C060006DCC03006DCC03006DCC03006DCC0300E0
:10C070006DCC03006DCC03006DCC03006DCC0300D0
:10C080006DCC0300CBE903006DCC03006DCC030045
:10C09000E7E903006DCC03005DF103006DCC030004
:10C0A0006DCC03006DCC0300000000000000000018
:10C0B0000000000000000000000000000000000080
:10C0C00000F002F800F03EF80CA030C80838241840
:10C0D0002D18A246671EAB4654465D46AC4201D1C0
:10C0E00000F030F87E460F3E0FCCB64601263342B4
:10C0F00000D0FB1AA246AB46334318475834000021
:10C1000078340000103A02D378C878C1FAD85207C0
:10C1100001D330C830C101D504680C6070470000FD
:10C120000023002400250026103A01D378C1FBD853
:10C13000520700D330C100D50B6070471FB51FBD3B
:10C1400010B510BD03F087F91146FFF7F7FF00F0B7
:10C1500005F903F09FF903B4FFF7F2FF03BC03F006
:10C16000A5F900000648704502D1EFF3098101E00E
:10C17000EFF30881886902380078024A104700000E
:10C18000FDFFFFFF35C20300401E00BF00BF00BF20
:10C1900000BF00BF00BF00BF00BF00BF00BF00BFA7
:10C1A00000BFF1D170470000056885F3088840683A
:10C1B000FF2464B2EFF30585002D01D1A6460047A8
:10C1C0002546064621273FBAF0B400240025002664
:10C1D0000027F0B4F92040B200470000401E00BF25
:10C1E00000BF00BF00BF00BF00BF00BF00BF00BF57
:10C1F00000BF00BF00BFF1D17047000070B5054619
:10C200000C46164602E00FCC0FC5103E102EFAD297
:10C21000082E02D303CC03C5083E042E07D301CC5D
:10C2200001C5361F03E021782970641C6D1C761E41
:10C23000F9D270BD10B50C46002802D0012008606C
:10C2400010BD2168002909D01E48421A814213D02E
:10C250003C2A0ED200223C303C3105E00E2014E096
:10C260000B780370401E491E1346521C3C2BF7D915
:10C2700002E03C2202F0CDFF00223C21114802F0F6
:10C28000F7FD1049891E08800020206010BD70B5A0
:10C2900005000BD000223C210A4802F0E9FD094CC0
:10C2A000A41E2188884203D00B2070BD0E2070BDD3
:10C2B0003C220449284602F0ACFF2088401C208024
:10C2C000002070BD823F00200A4610B501466B4831
:10C2D00002F0B6F910BD10B501F02EFC10BD10B57E
:10C2E000674986B01EC903946C460EC4002807D067
:10C2F000684618DF002803D00022114602F0A0F99A
:10C300000F20800313DF002803D00022114602F023
:10C3100097F95C4B48225C49082002F0FBFE00289C
:10C3200003D00022114602F08BF900200490059002
:10C3300001206946087404A860DF002803D00022A9
:10C34000114602F07DF9514802F000FF002803D0A9
:10C350000022114602F074F906B010BD4C48C169C4
:10C36000B1290CD00024002C01D00021C161494822
:10C370000F2140698903884203D1012002E0012492
:10C38000F1E70020002804D100221146104602F0F7
:10C3900057F901200007006901218902884201D173
:10C3A000012000E00020002804D1002211461046A0
:10C3B00002F046F9384B394A0521002002F017FBFC
:10C3C000002803D00022114602F03AF901F038FDAE
:10C3D00001F083FD0125002816D001F08DFD002815
:10C3E00003D00022114602F02BF920466840FFF7E7
:10C3F00076FF00F035F801F0A5FD00280AD00022F4
:10C40000114602F01DF905E020466840FFF767FF7E
:10C4100000F026F803252D03002C04D1A86801F0B4
:10C4200065FC002807D101F01DFD002803D0002283
:10C43000114602F005F9A86801F058FC002806D062
:10C4400001F04BFD002802D1A86801F017FDBFF3F1
:10C450004F8F14491248C860BFF34F8F00BFFDE7EC
:10C46000094A10B548321421082002F0F7F80028D4
:10C4700003D00022114602F0E3F810BDEFBEADDE9E
:10C48000D4F40300A7F1030098240020D7C20300CE
:10C4900000050040001000105BEE0300D0220020D9
:10C4A0000400FA0500ED00E008280CD004DC0028A8
:10C4B00007D006280FD108E00B280AD00C280AD193
:10C4C00005E00120704702207047032070470420D8
:10C4D0007047042901D0062070470520704770B5C9
:10C4E00014460A46032823D0042820D1FE4D0029F3
:10C4F00006D0E888FD49884219D0132176DF10E084
:10C50000204602F05BFD002803D00022114602F015
:10C5100097F8A869A0420AD101220321F44800F04B
:10C5200031FC002803D00022114602F089F870BDCA
:10C5300001211046FFF7B8FF02460121EEE7F0B5F2
:10C540000746087A0C4685B081070CD003221146B5
:10C55000384600F017FC002803D00022114602F0F4
:10C560006FF805B0F0BDE0490090143102F0FFFC17
:10C57000010011D1DC4E6168009A706902F049FE39
:10C58000009802F04EFD010006D130466946143095
:10C5900002F053FD010003D0384600F0B0FAE0E7A6
:10C5A000042001900098800802907069039001A80F
:10C5B00001F096FE05000BD0092D10D0706902F035
:10C5C000FDFC010002D0384600F099FA2946E3E765
:10C5D000207A3169401830617069B061C1E7207A12
:10C5E00031694118316170780028BAD07089401ED5
:10C5F0000004000C7081B4D1384600F017FD00280B
:10C6000003D00022114602F01BF830897081A8E7A0
:10C6100010B50022114602F013F810BD10B5B24C4F
:10C6200001202070E088B149884208D0132176DFCC
:10C63000002810D00022114602F002F80BE0A0788A
:10C64000002808D074DF002803D00022114601F032
:10C65000F7FF0020A07001F070F9002803D000223D
:10C66000114601F0EDFF002010BD70B50D780446B5
:10C6700001209D4A2B0002F020FF0A2B30430613B5
:10C6800020575C46601201F0B9FE0421FFF70CFF51
:10C69000024604212EE00022114601F0D1FF70BDB8
:10C6A000FFF7BCFF002803D00022114601F0C8FFAD
:10C6B00001F0BFFE002808D170BDFFF7AFFF0028D2
:10C6C00003D00022114601F0BBFF01F0C8FE70BD8F
:10C6D000107148680078507170BD02201071486870
:10C6E00000780128F8D101F030FE0221FFF7DCFECE
:10C6F00002460221204600F045FB0028CBD170BD48
:10C700000320107170BD12792046012A06D0022A3A
:10C7100007D0032AF6D1FFF712FF70BD00F002FA2E
:10C7200070BD00F03DFA70BD507088881081508156
:10C7300070BD00205070108170BD2046116900F05E
:10C7400040FCDAE710B56A49044690B088796A4639
:10C75000907068491180382101A802F0B9FD0220CB
:10C760006A46107100219171D4710120908101A855
:10C77000049200F0EEFE002803D00022114601F0E2
:10C780005FFF10B010BDF0B5574C8BB0A0780028FB
:10C790003AD157481821183802F09AFD2046544DD6
:10C7A000C078183D00240126002837D02F4648378E
:10C7B00000940194029410226946F81D039402F03B
:10C7C000FBFC002822D0F81D0890099768460675E2
:10C7D00009A804906846067708A806900420FFF789
:10C7E000B1FF2C700220287204A8E860282028825B
:10C7F0003F486C82183873DF002803D000221146AE
:10C8000001F01EFF384886700BB0F0BD0520FFF721
:10C8100099FF2E706F602C722C82E9E70620FFF7DB
:10C8200091FF2C706C602C72E0E770B52E4C018883
:10C830000022E588A6B017290AD01EDC11293FD0B6
:10C8400008DC022977D0102902D18088E080A2700C
:10C8500026B070BD264E303634461834132951D0D8
:10C860001429F5D1C389758D0021AB4200D1214631
:10C8700000238088F21D82DF1BE051296CD00EDC82
:10C8800018297DD01929E3D180790028E0D1A27040
:10C89000E068401EE0604FD0FFF775FFD8E75229EF
:10C8A00074D05529D4D180790028D1D113212846BC
:10C8B00076DF0028CCD00022114601F0C1FEC7E788
:10C8C0008020694608803220E06001236A4605A97D
:10C8D0002846AADF002803D00022114601F0B0FE4E
:10C8E000207800280AD107E000220020FFFF000086
:10C8F0004826002030150000FFF745FF0020C04308
:10C90000E080A5E70722C34909A802F082FC1022B3
:10C91000F11D05A802F07DFC1C2221460BA802F0A7
:10C9200078FC05A816900BA8159012ABBA4A852181
:10C9300028467FDFBDE70BE01422B84905A8FFF7C2
:10C940005DFC099805AC00900FCC01F009FA7FE777
:10C950000021284667DFACE7817900299ED0807AE4
:10C96000042803D0062801D0052897D102290BD02E
:10C97000012069460871FF208330088101A900E089
:10C9800004E02846A8DF94E70220F2E700F08AF8E6
:10C990008FE710B5044601F004F89E482146303870
:10C9A00000F0CDFA2046FFF740FF10BD10B5002281
:10C9B000114601F045FE10BD10B5974888B000241F
:10C9C0001C3804700471964802F0B8FB002867D147
:10C9D000944801F033FC02F0BBFA002860D18D4886
:10C9E000FFF755FC11206946087207228EA102A8A4
:10C9F0007CDF002803D00022114601F021FE0094C4
:10CA00000C2069460194088028204880FF208C80F3
:10CA10009130C88068467ADF002803D00022114692
:10CA200001F00EFE082069460094088080480190BD
:10CA3000804802907748303800F041FA002803D04F
:10CA40000022114601F0FCFD1C21684602F040FC6A
:10CA500079480190012080030290009403206946E8
:10CA60000873CC810C74754806900594684600F0F4
:10CA700042FF002803D00022114601F0E1FD664884
:10CA8000E1220178490849001140DF220C311140B0
:10CA900001700721417010218170FFF774FE0020A2
:10CAA00008B010BD70B55C4C654D1C3CE088A842D8
:10CAB00001D1082070BDE17800291BD05549012320
:10CAC00008223431A9DF0028F4D1022300221146C4
:10CAD000E088A9DF0028EDD12A460C21E088A7DFF5
:10CAE0005849884204D0082802D0891C8842E1D1E4
:10CAF000002070BD00231A461946A9DF70BD10B58D
:10CB00000A46044603211046FFF7CEFC02460321E5
:10CB1000204600F037F9002803D00022114601F02A
:10CB20008FFD10BD30B5054687B000200090019004
:10CB30000290039038486A461C3840791070374894
:10CB40000C38026880680690684604920590087A5E
:10CB50000C2807D003221CE00022114601F070FDD2
:10CB600007B030BD4C68204600F049F80190201D08
:10CB700000F045F802902046083000F040F803909D
:10CB800004A801F05EFB002807D00121FFF78CFC10
:10CB900002460121284600F0F5F80028DCD1DFE745
:10CBA000FEB50446087A82070ED08207920F04234E
:10CBB0009B1A0022154604E04E683554401CC0B252
:10CBC000521C9A42F8D308720120009048680290E3
:10CBD000087A80080190684601F0CEFB00280DD04D
:10CBE0000221FFF761FC02460221204600F0CAF84C
:10CBF000002803D00022114601F022FDFEBD10B531
:10CC0000044602F067FB0002E178000A09060843C7
:10CC100010BD0000782600201C220020F0F4030044
:10CC200093C90300DFC403004B79746F4446550079
:10CC30006BC60300ADC90300CD0C000011C6030094
:10CC4000FFFF00000230000003210C4802680A4385
:10CC500002600B4802680A4302600A4880470A489B
:10CC60000047FEE7FEE7FEE7FEE7FEE7FEE700001F
:10CC700006480749054A074B704700002405004055
:10CC80005405004099CC0300C1C00300402A002095
:10CC900040320020402A002010B500F022F8002881
:10CCA00005D030492E484860C8132F49886100F0EC
:10CCB0002BF8002802D02D490120886000F038F8B8
:10CCC00000280AD02A480168012904D029490160B6
:10CCD00001680129FCD1C02141612849264808602A
:10CCE00010BD00B52648018C008DC9B20006000FAA
:10CCF000012907D1030002F0E0FB0403030503054B
:10CD0000012000BD002000BD00B51D48018C008D34
:10CD1000C9B20006000F012908D1030002F0CDFBC3
:10CD20000506060406040600012000BD002000BD23
:10CD300000B51348018C008DC9B20006000F01290F
:10CD40000CD1030002F0B9FB0E0A0A0A0A0A0A0A09
:10CD50000A0A0A080A0A080A012000BD002000BDCC
:10CD6000DFFF07C000050040006C004000060040E7
:10CD700000EC0640759300000024F40024220020FB
:10CD8000C00F00F030B585B0002821D00388FE4CDC
:10CD9000A3421FD0FD4B1B78002B1BD0FB4C102552
:10CDA000641C2570617000230125A27003216A466E
:10CDB00011800193029303930493018A91809571EA
:10CDC000138104940392008801A9A6DF05B030BD49
:10CDD0000E20FBE70820F9E7F0B58BB004460227E8
:10CDE00068460773002607968783C68309A80890BC
:10CDF0000D46A18A208807AAA5DF002804D0E16A91
:10CE000000291AD0884718E06846808CC007C00FF8
:10CE100013D068460682208803A9A8DF002813D112
:10CE2000A97E28461B3001220B0002F046FB094672
:10CE30000F1C2227292C442E4600FF20FE30694675
:10CE40000882208803A9A8DF0BB0F0BD6B461E70D6
:10CE50000BE006221EE069460A72019027E0204698
:10CE600090470020F0E76B461A702B8B022BF2D212
:10CE7000EFE7684607706946A26AF0E7032000E022
:10CE80000420694612E00520FBE7298B032905D21F
:10CE9000032208212046FFF775FFD5E74178027885
:10CEA000080210436946888003D006200870A26AF1
:10CEB000D5E70720FAE70920E3E70322EAE730B5E0
:10CEC00085B00D46040038D0002D36D068680028A3
:10CED00033D00020C0432080AD480FC8049301AB7D
:10CEE00007C3AC486946088001A8811E63DF00289B
:10CEF00022D1221D69460120A0DF00281CD16846EE
:10CF00008078A071204600F0CAF8002814D120468D
:10CF100000F052F900280FD12946204600F001F90F
:10CF2000002809D16868A062A868002800D0E062E3
:10CF3000964901200870002048E70E2046E73EB5DC
:10CF4000002828D0002926D0826A002A23D00A8807
:10CF5000102A21D0112A30D0502A1FD0512A1AD19C
:10CF60000A460446891D0878022814D14888238A75
:10CF7000984210D1907A04280DD006280BD00528AD
:10CF800009D02046891CFFF727FF002803D0E16A5B
:10CF9000002900D088473EBD898810E0CA880389EF
:10CFA0009A42F8D108226B461A708A7F1A72203191
:10CFB0000191826A694690473EBD0021C9430180C4
:10CFC0003EBDF0B585B00A4605002BD028886E49D5
:10CFD000884229D06D480078002825D06B4E10205B
:10CFE000761C3070072070700127B77003206946E7
:10CFF00008800024F11C104600F048F869460988B2
:10D000004018694608800194029403940494288A85
:10D0100088808F710C8103910496288801A9A6DF6E
:10D0200005B0F0BD0E20FBE70820F9E7F0B585B0AC
:10D030000A46050026D028885349884224D0534800
:10D040000078002820D0514E1120761C3070012726
:10D0500069460F800024711C104600F017F86946DD
:10D060000988401869460880019402940394049446
:10D07000288A88808F710C8103910496288801A9E1
:10D08000A6DFCDE70E20CBE70820C9E70870020A2B
:10D090004A70020C8A70000EC8700420704730B5C8
:10D0A0008FB005461C21684602F012F969460878DF
:10D0B00004210843694608700024019403940494F1
:10D0C00005940694A87908A9887032486946801C9E
:10D0D0000884601C00070794000F0C771030487715
:10D0E000887FF9210840F721801C0840EF21084083
:10D0F0000121084369468877142109A802F0E8F85D
:10D1000008A8099007A80A9069468C851420CC8548
:10D1100008860D942B46A888083309AAA2DF0FB011
:10D1200030BDF0B58FB00F4605461C21684602F0B1
:10D13000CFF869460878022630430870002401942D
:10D140000394049405940694A87908A9887011485A
:10D150006946001D0884601C0007000F103007940A
:10D16000087700204877887FF9210840F721801C44
:10D170000840EF21084001210843694688771421BF
:10D1800009A802F0A5F807E0FFFF00002822002010
:10D1900004F503003015000008A8099007A86946A7
:10D1A0000A908E85CC850E860D972B46A888203355
:10D1B00009AAA2DF0FB0F0BD30B58FB005461C2123
:10D1C000684602F085F86A46107808210843102165
:10D1D0000843107000240194039404940594069469
:10D1E000A87908AA907015486A461084601C000748
:10D1F0000794000F147710305077907FF922104079
:10D20000F722801C10400843012108436A469077AA
:10D21000142109A802F05CF808A8099007A80A9050
:10D220006A4694851720D48510860D942B46A888CD
:10D23000103309AA6946A2DF71E70000311500002A
:10D24000FFB583B00C9C8646002620881F463546D5
:10D25000029036E070464068A900401801886A468E
:10D2600091804088D0800022694601A865DF0028AF
:10D2700035D1684602780598824221D1002E01D02E
:10D28000002100E002212088511842180D998A429D
:10D2900024D8002E08D1401C80B220800499395433
:10D2A0002088401C2080012680B2C219694601A84E
:10D2B00065DF002813D1694620880978401820804E
:10D2C0006D1C70460088A842C4DC002E0BD021885B
:10D2D0000298081A401E80B2FF2802D90C2007B01D
:10D2E000F0BD029978540020F9E7FFB583B01646E7
:10D2F0000C9D0D9C1F460222009501940398FFF798
:10D300009FFF0028EBD13B46102231460095019447
:10D310000398FFF795FFE2E7FEB50F460021168858
:10D3200004461180406B11231546002816D0027860
:10D33000032E01D20C210FE0022038702888401CF7
:10D3400080B228803B542888401C80B228803A5400
:10D350002888401C2880002100297DD1206B0028CE
:10D3600021D084462888394602461230B04201D97D
:10D370000C2116E08B5428881023401C80B2288092
:10D380000B542888401C28800F206246125C2B8892
:10D39000401ECA542B8840B25B1C2B800028F4DA54
:10D3A00000210029D9D1204620300290807B00281E
:10D3B00006D033462A46394600F00CF901007DD1EB
:10D3C0000298407B002806D032462946384600F0B5
:10D3D0002BF9010072D1A078002821D02888001DE7
:10D3E000B04201D90C2119E0684679DF010015D15E
:10D3F00029880320785428881921401C80B228806D
:10D4000039542888401C80B22880C1196846008899
:10D4100000F0DBF8298840182880002100291BD162
:10D42000E07800281DD0288803230146E356C01C5D
:10D43000B04201D90C2112E0022078542888012141
:10D44000401C80B2288039542888401C80B2288033
:10D450003B542888401C00E079E028800021002906
:10D4600075D1606800281BD00023C3562888014668
:10D47000C01CB04201D90C2110E002207854288849
:10D480000A21401C80B2288039542888401C80B270
:10D4900028803B542888401C28800021002956D130
:10D4A000208900280CD020463B4606220221083065
:10D4B00001960095FFF719FF010000E048E047D111
:10D4C000208A00280AD020463B460722032110303C
:10D4D00001960095FFF709FF010039D1208B002844
:10D4E0000AD020463B46152214211830019600959B
:10D4F000FFF7FBFE01002BD1206A002806D033463F
:10D500002A46394600F00EF9010021D1606A002850
:10D5100006D033462A46394600F047F9010017D1B4
:10D520000298007B002807D033462A463946204619
:10D5300000F06FF901000BD12078002807D03346A6
:10D540002A463946204600F09EF8010000D10846E0
:10D55000FEBD70B50D4692B01F216A4611800024B1
:10D560009180002812D0C178490701D4072200E039
:10D570000022002A02D0104612B070BD6A4602A9ED
:10D58000FFF7CAFE0028F7D102AE01E000261480A2
:10D59000002D0ED0E878002800D007200028EBD11D
:10D5A00001AA0AA92846FFF7B7FE0028E4D10AAA73
:10D5B00002E068460022848068468088C3B26846DC
:10D5C0000088C1B2304672DFD6E70870000A4870A2
:10D5D0000220704730B51488E51C9D4201D90C200B
:10D5E00030BD02250D5513881C245B1C9BB2138093
:10D5F000CC5413885B1C9BB21380012807D00228EF
:10D6000007D0032807D0042807D0072030BD00200A
:10D6100004E0012002E0CD5401E00320C85410884A
:10D62000401C1080002030BD7CB5054608880C46A3
:10D630000930904201D90C207CBD684671DF00287A
:10D64000FAD121880820685420881B21401C80B210
:10D6500020802954208800A9401C80B220804019D5
:10D660000622013101F0D5FD20886946801D80B277
:10D6700020800978002900D0012129542088401CED
:10D68000208000207CBDF8B50F4601781446054681
:10D69000012902D16878002806D02088821C9A428D
:10D6A0002DD8012902D006E00720F8BD697841187D
:10D6B000891C994223D8181A801E86B268460680B3
:10D6C0002188B81C081869467DDF0028EDD129782B
:10D6D000022905D168460088B04201D809200AE035
:10D6E0000820012905D16978B14202D86A46118023
:10D6F00001E069460E8069460988FE2901D90C209F
:10D70000F8BD2288491CB9542188491C89B221805E
:10D71000785420886946401C208009884018208061
:10D720000020F8BDF8B517880646B81D14460D460A
:10D73000984201D90C20F8BD3088062813D319234C
:10D74000DB015649984201D988420CD17288062AD9
:10D7500009D39A4201D98A4205D1884205D08A422A
:10D7600003D0904201D9072000E000200028E2D138
:10D770000520E85520881221401C80B220802954C1
:10D780002088401C80B2208041193088FFF71DFF9F
:10D790002188401880B2208041197088FFF715FF5A
:10D7A0002188401820800020F8BD70B505460E463F
:10D7B000808814461188021D8A18801C9A4201D85C
:10D7C000FE2801D90C2070BD401C70542088FF2118
:10D7D000401C80B2208031542088401C80B22080C0
:10D7E00081192888FFF7F1FE2188401880B2208037
:10D7F000AA88002A09D0A968002908D0801901F058
:10D8000008FD2088A98840182080002070BD0720CE
:10D8100070BDFFB581B001981446806A0F4600289C
:10D820003AD0019800262030009030E00198816ABB
:10D830000C2070430D18A888801CFE2802D90C20EB
:10D8400005B0F0BD2188401C785420881621401C6A
:10D8500080B2208039542088401C80B22080C119B9
:10D860002888FFF7B2FE2188401880B22080AA885D
:10D87000002A09D0A96800290ED0C01901F0C9FCFE
:10D880002088A98840182080761C0098F6B2007B7A
:10D89000B042CBD80020D3E70720D1E7FFFF00003C
:10D8A00038B5674A6749508888420FD05178664C2E
:10D8B000491CC9B25170237B8B4208D3111D75DFFF
:10D8C000002803D0A169002900D0884738BD002571
:10D8D0005570217C002907D03B2176DF002803D03A
:10D8E000A169002900D0884761690029EED0684607
:10D8F0000570884738BD70B5064601461C2252485F
:10D90000FEF77CFC4E4C002525703168002906D0BE
:10D910000822201D01F07DFC201D7ADF02E048482E
:10D92000001D7BDF002807D1401E60806570474ADC
:10D930000021474801F09BF870BD10B544480068CD
:10D9400001F008F910BDF8B53D480C3000F06BF857
:10D9500000263B4D3C4C002807D0616900291CD0B3
:10D9600001206A461070684616E02878002805D025
:10D970006169002911D0684606700DE068780028BA
:10D980000DD0A16832480022006801F0A9F80028F3
:10D9900003D0A169002900D088472E70F8BD6168C6
:10D9A000F0E7F8B5284D02880027254EEC89102AAB
:10D9B00017D02749112A21D0122A2DD0502A0FD151
:10D9C000C288801DA2420BD1028B022A08D1C27EDE
:10D9D000837E10021843C007C00F13D0FFF7B3FFB8
:10D9E000F8BD8188718001461548082216310C3037
:10D9F00001F00FFC7770002CF0D0F8BD0020C04380
:10DA000070807770086801F0A5F80028F5D0A96942
:10DA10000029F2D08847F8BD811D094808220C3042
:10DA200001F0F7FBDAE706494088091D0A889042B1
:10DA300004D34988884201D80120704700207047EC
:10DA400030220020FFFF0000D4260020A1D80300D0
:10DA500014F5030031B5054C04E0491E2046009141
:10DA6000FEF792FB00990029F7D138BDE7030000CB
:10DA700014225043894A002180180171C18002227A
:10DA80000161C26041610181704770B5834C14220D
:10DA90002178834D51430A19117913690F206D883C
:10DAA000121D01290FD003290CD1012000070069A4
:10DAB00081B2184601F01FFC401928DF002801D16F
:10DAC0000121A17070BDA802558811692D1A09188D
:10DAD00092881818101801229202954202D2AA08C0
:10DAE00029DFEBE7FF22013229DFE7E7F8B56B4DCD
:10DAF000069E6C780A2C1DD02F783C19E4B20A2CB3
:10DB000001D30A3CE4B214277C436419207162619A
:10DB100003C92161E060E3802681A9780020002903
:10DB200004D1FFF7B2FF112800D100206978491C09
:10DB30006970F8BD0420F8BD70B5584C0246A17854
:10DB40000020012945D10023A370264635781421F1
:10DB500069438919022A03D0032A3AD10D2035E0FE
:10DB60004F4E7288521C92B27280C98892028A42C9
:10DB700001D3012100E00021002913D073806178D6
:10DB8000491E6170691CC9B221700A2901D30A3982
:10DB90002170142169430919091D00F06FF8284606
:10DBA000FFF766FF61780020002909D0A1780029DD
:10DBB00006D1FFF76AFF002802D0112800D100200B
:10DBC000002806D02178142251430919091D00F0BC
:10DBD00055F870BD70B50025314E30487580057020
:10DBE000457085702C462046FFF742FF641C0A2CC6
:10DBF000F9D32B49358000207580091D8200401C17
:10DC00008D500228FAD3002070BD10B5244B1A881D
:10DC1000022A08D00A6091001C1D00686050521C46
:10DC20001A80002010BD042010BDF8B507461C4620
:10DC300016460D46084600F01BF800280CD028199F
:10DC400000F016F8002807D033462A46394601204E
:10DC50000094FFF74BFFF8BD1020F8BD08B50B4648
:10DC600000210A46009101460320FFF73FFF08BD4F
:10DC7000800701D0002070470120704738B50C465E
:10DC8000A268074B92001B1D9D58097863880246C5
:10DC90000093204608302369A84738BDF0260020AD
:10DCA0004422002010B5BD4B10461C78012C03D136
:10DCB000012901D102211970002803D00022114648
:10DCC00000F0BEFC10BD10B5B44C48DF002803D0F6
:10DCD0000022114600F0B4FC00F045FD2078022837
:10DCE00003D0032801D00428EFD110BD38B5006857
:10DCF000401C19D00024684600F058F900990878B3
:10DD0000012810D1488800280AD003200003896820
:10DD10008068002201F0ACF800994988814201D165
:10DD2000012400E00024204638BD10B504469B487D
:10DD30001C21001DFFF792FF002803D0002211468E
:10DD400000F07EFC954800231C222146001DFFF7B1
:10DD50006CFF002803D00022114600F071FC10BDBA
:10DD60000FB4F8B5684600F021F96946087E4B8B80
:10DD700001258A4CFF228A49002812D0012816D09A
:10DD800003282AD00026022837D0052847D00428A7
:10DD90004FD0062801D104202070F8BC08BC04B084
:10DDA00018474B80099888600D700A7110E04B800D
:10DDB000089B0798C018099BC0188860A5200870A8
:10DDC0000A710798C86008984B6108610A988861D1
:10DDD00025707348FFF7A9FFDFE7009802780A7003
:10DDE00042884A8080688860AA2008710798C860C5
:10DDF0000898086109984861EAE700980378A52B1C
:10DE000009D00B7043884B80806888600A71CE60AF
:10DE10000E614E61DCE74E808E600A70F6E7FEF719
:10DE2000FDFB002803D00022114600F009FC03206E
:10DE3000B2E74E808E600A70009800790871C8E7DA
:10DE40001CB5584803C801910090FFF7C3FE002895
:10DE500007D15249FF208002091D48606846FFF73C
:10DE6000D4FE1CBD10B500F0A8F9002805D1FEF7BE
:10DE7000A3FD0446FFF727FF204610BD70B511DF54
:10DE8000002803D00022114600F0DAFB46490020AA
:10DE90000B68454C012580342A4682401A420BD03B
:10DEA00041B2002908DBC906C90E2A468A40226011
:10DEB000BFF34F8FBFF36F8F401C2028ECD3032498
:10DEC0002403A06813DF002803D00022114600F0CD
:10DED000B7FBA06800F070F870BD08B5684600F0A8
:10DEE00065F800980178A52904D00079AA2801D006
:10DEF000002008BD012008BD10B500F058FB002827
:10DF000003D100F034FB00281BD06420FFF7A2FDF2
:10DF100000F0D3FA002803D00022114600F090FB55
:10DF200000F045FB002803D00022114600F088FBDA
:10DF300000F0FDFA041E03D00022114600F080FB21
:10DF4000204610BD00B5174987B01422083101A83A
:10DF5000FEF754F90598009001A80FC8FFF700FFDD
:10DF6000FFF7B1FE002007B000BD38B50446684693
:10DF700000F01CF8009800782070009840886080BD
:10DF800000988168A16001792171C168E16001692F
:10DF90002161416961618069A06138BD5022002022
:10DFA000BC27002018F5030000E100E001490160F2
:10DFB0007047000000FC030010B5FEF7F5F810BD37
:10DFC00070B5FC4C1E4660781546012902D0032925
:10DFD00017D109E0052814D16469002C11D01A4624
:10DFE00029460420A0470CE002280AD1F2484068E4
:10DFF0008047032060706369002B02D032462946B7
:10E000009847280003D00022114600F019FB70BD8C
:10E0100000B5E84987B001200870052069460871FD
:10E020000598009001A80FC8FFF79AFE07B000BD41
:10E0300010B5E0480078002801D0082010BDDF4C62
:10E04000206800F087FD002803D00022114600F070
:10E05000F7FA0F2100228904206800F041FD041E18
:10E0600003D00022114600F0EBFA204610BDD14942
:10E0700010B5D0482031016102214170808981B200
:10E08000CC482030FFF7EAFD002803D000221146DB
:10E0900000F0D6FA10BDC74910B5C6481831016165
:10E0A000022141700320000380680F218903081AB0
:10E0B000C003010CBF481830FFF7D0FD002803D083
:10E0C0000022114600F0BCFA10BD704700B5BB49F4
:10E0D00087B014220C3101A8FEF790F80598009043
:10E0E00001A80FC8FFF73CFEA0E700B587B00120EC
:10E0F00069460871AF488088C880032000038068A3
:10E100000590AD4890384168029181680391C068DC
:10E110000490059800900A46049B02990198FFF725
:10E120001FFE002082E730B5A34D87B0903DA8893F
:10E1300081B2A0482030FFF791FD002803D00022D3
:10E14000114600F07DFAA889002382B29948183060
:10E1500041680830FFF769FD040011D1142101A8BE
:10E1600001F0B6F800206946087192488088C8809E
:10E17000E86804900598009001A80FC8FFF7F0FD2B
:10E18000204607B030BD00B587B00320694608714E
:10E1900088488088C88088489038416802918168A2
:10E1A0000391C0680490059800900A46049B029968
:10E1B0000198FFF7D5FD002038E77CB57F4E7D4CF8
:10E1C000B1687068019100900025A5702146A58076
:10E1D00020316846FFF719FD002801D065707CBD2D
:10E1E00003207449000380682031486020390A46C2
:10E1F000126A8A610F218903091A490840186D497A
:10E200006F4A1831486000216C4800F030FC00284B
:10E2100003D00022114600F013FA0F2100228904D6
:10E22000306800F05DFC002803D00022114600F0A9
:10E2300007FA0120A560607000207CBD5D4948613F
:10E24000704770B541685C480C684B688A689038C4
:10E25000C968046043608260C1600078440701D5EA
:10E26000840705D19C0703D1940701D18C0701D005
:10E27000062070BD9B1859184E4D0F239B02E96074
:10E280009A4213D84F4B504A4B4EC40709D0986856
:10E29000101A88420AD34D4830604D4870604D488E
:10E2A0000FE09B68D21A52088A4201D20C2070BD3E
:10E2B0004949316049497160800701D5484800E00B
:10E2C0004848B0606878012802D00824204670BD14
:10E2D000FFF7AEFE0400FAD13168E8688847F5E739
:10E2E00070B5040004D0207A800703D0102070BDE0
:10E2F0000E2070BD2F4E7078032803D0042801D063
:10E30000052801D0082070BD6068F1688500B068FC
:10E310004019884204D90020C043B0600C2070BD71
:10E32000FFF786FE0028FAD13089AAB283B2A1682D
:10E330003069FFF77AFC0028F1D1B1684919B16062
:10E34000F2689142EBD0092070BD10B5194C08203D
:10E35000A168002900D010BD61780429FBD11648BE
:10E36000A178803800F0A2FD002802D00021A17021
:10E3700010BD0521617010BDF8B50E4F06467878C6
:10E38000032804D0042804D008242046F8BD042023
:10E390007870B868002801D00820F8BDFFF748FE63
:10E3A0000400FAD170688500B878411980291BD91A
:10E3B0000920F8BD5C2200208828002034F50300E5
:10E3C00011E003000030000000C003006FE0030014
:10E3D000CDE00300EBE0030097E00300CBE0030097
:10E3E00087E1030027E10300924AB16810182A462A
:10E3F00000F00FFFB8784019B870C6E710B58E4C22
:10E400006078052813D1E168A06888420FD1062002
:10E410006070FFF70DFE002808D12069E1684068B0
:10E4200000F07FFD002801D10721617010BD082098
:10E4300010BD10B580484078072801D0082010BDD5
:10E440007E48006800F086FB002803D000221146B9
:10E4500000F0F6F8774880308068804710BD00B53E
:10E4600087B00620694608710598009001A80FC87A
:10E47000FFF776FCDAE5F8B51C4617460D4606466A
:10E4800000F0C2F8002817D001200003854207D908
:10E490002346291B301B1A46FFF7EDFF00280BD13E
:10E4A0003A462946304600F0BAF8002804D13A46E8
:10E4B0002946304600F0A8F8F8BDF0B589B06846A6
:10E4C000FFF753FD039800282AD001210903069A7B
:10E4D0004018904226D9501A44081046039A0D4617
:10E4E00087180246600016184019079003200003A1
:10E4F0008068039988420DD228190422014600F051
:10E500008EF800280CD129460422084600F087F82E
:10E51000002805D1BA1B234630460799FFF7ABFF09
:10E5200009B0F0BD039A069800F079F8F8E700B555
:10E530008BB06846FFF719FD049800280DD00398AA
:10E5400000280CD0039906984018089000210498E0
:10E5500007918008099007A818DF0BB000BD0320C1
:10E56000000380680F218903091A4908ECE700B508
:10E570008BB06846FFF7F9FC04980028EDD00F2116
:10E580000398890300280CD0039A069808918018F4
:10E59000099003220498079280080A9007A818DFC0
:10E5A000DBE70320000380680A1A5208EEE730B563
:10E5B0008BB06846FFF7D9FC0398002814D00122DD
:10E5C000120306998018884214D9881A430808460D
:10E5D0000399039D44185900401889180322120317
:10E5E0009268AA4202D20E200BB030BD221AFFF769
:10E5F00042FFF9E7032008920790039809918008E9
:10E600000A9007A818DFEFE71FB5032301909008D1
:10E61000039000930291684618DF04B010BD1FB547
:10E62000012301909008039000930291684618DF3F
:10E63000F3E70000082800205C22002034F50300E6
:10E64000BFF34F8F04490348C860BFF34F8F00BF2B
:10E65000FDE700000400FA0500ED00E010B5CB0076
:10E6600008339CB2930701D0072010BD584B9A6025
:10E670001219DA6000225A701A7058809980104678
:10E6800010BDF7B5524E82B070880D46814268D8F1
:10E6900000206946087050494E4C4868C005C00DBE
:10E6A00016D0103840B2002805DB81084B4A89009B
:10E6B0008918096806E00207120F083A92089200CA
:10E6C0005118C9698007C00EC1400806870F00E0D5
:10E6D0000427012F09D0684636DF022837D00028EA
:10E6E00003D000221146FFF7ABFF3178019170781B
:10E6F00000F048F80199884204D07478707800F0EE
:10E7000041F87070012F0BD062B66846007837DF91
:10E71000022805D0002803D000221146FFF790FF01
:10E720002C4884421BD0B068E7000499C15102997B
:10E7300000290ED0002D0CD070882A464443F06882
:10E74000201800F066FDB0683818858004E072B6C5
:10E75000CBE7002138188180002005B0F0BD0420EF
:10E76000FBE70920F9E70EB504E068460188029A44
:10E770000198904702AA694601A800F00CF8002809
:10E78000F3D00EBD12498988884201D2401C00E0B6
:10E790000020C0B27047F7B50D4C0E4607462178F1
:10E7A000052062788A4212D025782078FFF7EAFFA8
:10E7B00020706088E168684340183860A168E8000C
:10E7C0004218928832800958029801600020FEBDEC
:10E7D00084220020FFFF000000ED00E000E400E0E4
:10E7E0008307FF22DB0E9A408907090E9940002813
:10E7F00008DB8308FA489B001818036893430B430F
:10E80000036070470007000F08388308F5489B0035
:10E810001818C36993430B43C361704770B5012552
:10E82000F14968040860BFF34F8FBFF36F8FEF4962
:10E8300040108860ED4940398860ED4C65602F20BC
:10E84000FDF7CCFCA560EB4C00252F202561FDF7E2
:10E85000C5FCE57070BDF0B5E64FF8683C788446BD
:10E8600042E0B968E000431819783AE018224A43B8
:10E870005868491C80189A78C9B28A4200D1002190
:10E880000278022A02D0032A2BD126E0FA684568D2
:10E890001646104603E0A84204D00246C06900288C
:10E8A0001FD0F8E700281CD0824209D1F569FD602D
:10E8B000002D05D1CE4E0125B56000263E613D718B
:10E8C0000568C069D06100280BD002685219026047
:10E8D00007E00274C069F86001E0F86800220028CF
:10E8E000F7D158788842C1D12046641EE4B200288E
:10E8F000B7D1F968614501D00120F0BD0020F0BD1D
:10E90000F8B50546BB480027C168009106784EE07F
:10E91000B848F10080680C1843E0002D02D028466A
:10E92000ED691FE02078182141436268401CC0B2A5
:10E9300051182070A278904200D127700A78486858
:10E94000012A30D1027C002A2DD18A684260CA682F
:10E9500082600A69C26049698161A6490979002912
:10E9600000D04760A34A416812698C46891A09029F
:10E97000A14B090A994202D28268891807E06146D0
:10E98000511A09028268090A8A4202D9511A0160A1
:10E9900000E007604760012187600174C76100F0F3
:10E9A00033F9002DB9D1207861788842B5D130464D
:10E9B000761EF6B20028ABD18E48C168009881421D
:10E9C00001D00120F8BD0020F8BD10B58B49002012
:10E9D000086048608860C8608849403908604860BD
:10E9E00000F030F910BD10B500F06AF910BDFFB5A8
:10E9F00081B014460E46900735D100277D4D002C7E
:10EA000033D0FFF70BFF04986861032028702B4672
:10EA1000AC60254618340021324618204243C80015
:10EA2000401907704770867044601419491C032907
:10EA3000F5DBDF605F701C469F70142000F0C6F8A5
:10EA400003211420FFF7CCFE142000F0ABF86C4D2E
:10EA50000198A86003211120FFF7C2FE68682061B9
:10EA6000002005B0F0BD0720FBE7AF60FBE7614B7E
:10EA70009B68002B07D0002A07D0002805D000682B
:10EA8000037C002B03D00820704707207047417497
:10EA900042610020704753494868C005C00D19D035
:10EAA000103840B2002805DB81084D4A89008918DA
:10EAB000096806E00207120F083A920892005118FE
:10EAC000C9698007C00EC1400806800F012803D025
:10EAD000032803D0022070470020704701207047B0
:10EAE000FEB50D46434917468968044600292BD0D8
:10EAF000002C29D0052D01D20720FEBD6069002819
:10EB000022D0607C012821D00026FFF7C4FFC0007E
:10EB10003849019089684018694600F00DF90028CD
:10EB200016D0012101703649446049680830E2C0BE
:10EB30003049019889684118684600784870142067
:10EB400000F03AF80020FEBD0820FEBD2E46DCE7AE
:10EB50000420FEBDF8B5274D0446A96800291DD044
:10EB6000002C1BD06069002818D000262674FFF7FF
:10EB700092FFC700A8686946381800F0DDF8002841
:10EB80000ED0022101704460A868391868460078E8
:10EB90004870142000F010F83046F8BD0820F8BD89
:10EBA0000420F8BD002806DBC106C90E01208840FC
:10EBB0000D49803908607047002806DBC106C90E80
:10EBC000012088400849803108607047002805DB33
:10EBD000C106C90E012088400A490860704700003C
:10EBE00000E400E000ED00E080E100E040130140BF
:10EBF0000010014094220020FFFF7F0040110140DF
:10EC00000015014080E200E010B5864CE168002963
:10EC100006D002680B689A4204D89A1A0A60C16149
:10EC2000E06010BD0C4604E00C46C969D21A002908
:10EC300004D00B689342F7D39B1A0B600260C1614A
:10EC4000E06110BDF8B5774FFC68002C37D07648EE
:10EC5000002641683869081A05022D0A2068A84272
:10EC60001AD82D1A86192246107CE469002811D082
:10EC7000002010747B69002B09D091695069984776
:10EC8000002807D000221146FFF7DAFC02E05169A4
:10EC900090698847002CE1D17978B878814206D113
:10ECA000401CC0B2B870022801D10020B8705D4984
:10ECB0000006800D18310E501420FFF77DFFF8BDBF
:10ECC000FEB5584800250669C0680190684600F006
:10ECD00046F80746FFF7BFFD0446002F1ED0002070
:10ECE000009916E022688A4202D9501A206014E086
:10ECF000891A101800222260E269DA60E268274669
:10ED0000002A06D033181B021B0A6360A260FD6153
:10ED10002546444BDC68002CE4D101242846FFF74B
:10ED2000EFFD002801D1002C02D0019800F034F84A
:10ED30003C4900200871FEBD42788378521CD2B253
:10ED4000934200D100220378934201D1002045E78D
:10ED50000A70416840781822504308183EE710B501
:10ED6000304A002351789478A14212D0491CC9B28C
:10ED70005170022900D1537051782A4B8900183301
:10ED800059580160106908180002000A106101203A
:10ED900010BD0360002010BDF8B52249C8680028E6
:10EDA0003DD00768204844680E69A01B05022D0A63
:10EDB000C878ED1C002815D101201C4900044860CA
:10EDC0001A49403948601120FFF700FF1120FFF772
:10EDD000E9FE1749012008602F20FDF7FFF91148CF
:10EDE0000121C170BD4200D23D46A81900020E4B60
:10EDF000000A403318600C4A5168001B091B0902C5
:10EE0000090A0002000AC91C814207D9506818602B
:10EE10002F20FDF7E3F91120FFF7CEFEF8BDFFF735
:10EE2000FDFCF8BD94220020001501404013014074
:10EE30000010014010B50446082903D00020002826
:10EE400002D006E00120FAE7002211461046FFF743
:10EE5000F7FB21686068884710BD1CB501910090E0
:10EE6000024A08216846FFF70CFC1CBD35EE030082
:10EE700010B50446002A02D01088002210E00A488B
:10EE8000FBE7030A00020343A05C584003061B0F84
:10EE900043401803584083B21806C00C5840521C17
:10EEA0008A42EED310BD0000FFFF000070B50024C1
:10EEB0000C290ED305464318008941004919581AF8
:10EEC0000A38C2B21E48022A027002D30A318B42AB
:10EED00001D2092070BD1B4800F09BF91A491B4A5A
:10EEE0000888904202D02B88834218D148889042EB
:10EEF00002D06988814212D1144A0323521E298903
:10EF00001B03A1420BD9600040194089904204D0F4
:10EF10009E89641CB6B2B042F3D1002070BD0B20B4
:10EF200070BD10B50022FFF7A3FF06494A780B78A1
:10EF300011021943884201D00B2010BD002010BDE2
:10EF4000B42200209428002080100010FFFF000051
:10EF50004B48002101704C484A4A02608160C16000
:10EF6000016108224161426081610846704710B525
:10EF700000291DD000220A60434A5368002B1BD091
:10EF8000202817D85B1E5360D0682423401CD06013
:10EF9000106914684343E3180B60012383409169AF
:10EFA000401C19434007400F91611061002010BDC3
:10EFB0000E2010BD0C2010BD042010BDF0B5324F46
:10EFC0000346B96800292AD07E691020711A4907C2
:10EFD000490F3D680A4624244C432C199C4206D113
:10EFE0000123BC698B405C400020BC6104E0491CEB
:10EFF0004907490F8E42EED1491C4C07640FB9698D
:10F0000001252B46934019420AD1BA68002A07D03D
:10F01000521EBA607A68521C7A602246F1E70420D8
:10F02000F0BD194A2423117C1268491E4907490F73
:10F030005943203150500020704770B500281AD035
:10F04000002918D0104AD368002B16D05B1ED3605D
:10F05000936824265B1C9360536914681D467343B0
:10F06000E61820330660E0586D1C08606807400F02
:10F070005061002070BD0E2070BD042070BD0000E6
:10F08000B5220020A0280020C029002010B5084685
:10F090001146FDF719F910BDF8B5384E3078002843
:10F0A00037D03069002807D00025F068002805D047
:10F0B0000024002D04D013E00125F6E70124F8E731
:10F0C000684651DF052806D0002806D000221146E8
:10F0D000FFF7B6FA04E0012502E03169009888479D
:10F0E000002C12D1708869460880B06861DF05285D
:10F0F00006D0002806D000221146FFF7A1FA04E04E
:10F10000012402E0F168B0688847002DD1D0002CBE
:10F11000CFD0F8BD10B5002901D08C0701D0072051
:10F1200010BD164CA16062801549636010DF002895
:10F13000F6D10120207016202EDF10BD002803D04C
:10F140000E49C860002070470E207047002803D089
:10F150000A490861002070470E20704710B5074823
:10F160004068002807D08047002803D000221146BD
:10F17000FFF766FA10BDFFF78FFF10BDBC2200201D
:10F180008DF0030010B5002903D00020002802D024
:10F1900006E00120FAE7002211461046FFF750FA78
:10F1A000FFF77AFF10BD10B50021024A0846FFF7AD
:10F1B00068FA10BD85F10300034610B50B439B07A9
:10F1C0000FD1042A0DD308C810C9121FA342F8D0CA
:10F1D00018BA21BA884201D9012010BD0020C043CD
:10F1E00010BD002A03D0D30703D0521C07E0002033
:10F1F00010BD03780C78401C491C1B1B07D10378F9
:10F200000C78401C491C1B1B01D1921EF1D11846E1
:10F2100010BDF8B5042A2CD3830712D00B78491CF3
:10F220000370401C521E83070BD00B78491C0370DF
:10F23000401C521E830704D00B78491C0370401CED
:10F24000521E8B079B0F05D0C91ADF002023DE1B3F
:10F2500008C90AE0FCF7D2FFF8BD1D4608C9FD4009
:10F260001C46B4402C4310C0121F042AF5D2F308E8
:10F27000C91A521EF0D40B78491C0370401C521E50
:10F28000EAD40B78491C0370401C012AE4D40978A5
:10F290000170F8BD01E004C0091F0429FBD28B07EF
:10F2A00001D50280801CC90700D002707047002978
:10F2B0000BD0C30702D00270401C491E022904D3A0
:10F2C000830702D50280801C891EE3E70022EEE757
:10F2D0000022DFE70378C2781946437812061B0242
:10F2E00019438378C0781B04194311430902090AA2
:10F2F000000608437047002203098B422CD3030AFF
:10F300008B4211D300239C464EE003460B433CD472
:10F31000002243088B4231D303098B421CD3030ADA
:10F320008B4201D394463FE0C3098B4201D3CB010A
:10F33000C01A524183098B4201D38B01C01A52413A
:10F3400043098B4201D34B01C01A524103098B423E
:10F3500001D30B01C01A5241C3088B4201D3CB0029
:10F36000C01A524183088B4201D38B00C01A52410C
:10F3700043088B4201D34B00C01A5241411A00D2BC
:10F3800001465241104670475DE0CA0F00D0494225
:10F39000031000D34042534000229C4603098B4295
:10F3A0002DD3030A8B4212D3FC22890112BA030A1D
:10F3B0008B420CD3890192118B4208D3890192119F
:10F3C0008B4204D389013AD0921100E08909C30924
:10F3D0008B4201D3CB01C01A524183098B4201D326
:10F3E0008B01C01A524143098B4201D34B01C01A11
:10F3F000524103098B4201D30B01C01A5241C30889
:10F400008B4201D3CB00C01A524183088B4201D3F7
:10F410008B00C01A5241D9D243088B4201D34B0012
:10F42000C01A5241411A00D20146634652415B1054
:10F43000104601D34042002B00D549427047634635
:10F440005B1000D3404201B50020C046C04602BD5B
:10F45000704770477047754600F024F8AE460500C7
:10F4600069465346C008C000854618B020B5FDF770
:10F47000FFFB60BC00274908B6460026C0C5C0C5D2
:10F48000C0C5C0C5C0C5C0C5C0C5C0C5403D490098
:10F490008D46704710B50446C046C0462046FCF76E
:10F4A0005AFE10BD00487047DC2900200149182091
:10F4B000ABBEFEE726000200704730B47446641EFF
:10F4C0002578641CAB4200D21D46635D5B00E318E7
:10F4D00030BC1847020000000000000000000000DF
:10F4E0000000000003000000000000000000000019
:10F4F0000500000000000000000000000000000007
:10F500000000000023D1BCEA5F782315DEEF121261
:10F5100000000000B4260020A5DC0300000000006D
:10F5200002000000000000000000000000000000D9
:10F5300000000000D8270020C1DF03000000000009
:10F5400004000000000000000000000000000000B7
:10F550000000000074F5030000220020D00000002D
:10F5600004C1030044F60300D0220020700F000005
:10F5700020C10300000000000000FFFF00000000A9
:10F580003200000000000000000000000000000049
:10F5900000000000000000000024F4000000000053
:10F5A000000000000000000000000000000000005B
:10F5B000000000000000000000000000000000004B
:10F5C000000000000000000000000000000000003B
:10F5D000000000000000000000000000000000002B
:10F5E000000000000000000000000000000000001B
:10F5F000000000000000000000000000000000000B
:10F6000000000000000000000000000000000000FA
:10F6100000000000000000000000000000000000EA
:10F6200000000000000000000000000000000000DA
:10F6300000000000000000000000000000000000CA
:04F6400000000000C6
:020000041000EA
:0410140000C0030015
:040000050003C0C173
:00000001FF
