:020000040001F9
:10D00000D8390020BDD10100D7D10100D9D101000C
:10D010000000000000000000000000000000000010
:10D02000000000000000000000000000DBD1010053
:10D030000000000000000000DDD10100DFD1010090
:10D04000E1D10100E1D10100E1D10100E1D1010014
:10D05000E1D1010000000000B1D50100E1D10100E3
:10D06000E1D10100E1D10100E1D10100E1D10100F4
:10D07000E1D10100E1D10100E1D10100E1D10100E4
:10D08000E1D101003DD70100E1D10100E1D1010072
:10D0900065D80100E1D101006DD80100E1D10100A6
:10D0A000E1D10100E1D1010000000000000000001A
:10D0B0000000000000000000000000000000000070
:10D0C00000F002F800F03EF80CA030C80838241830
:10D0D0002D18A246671EAB4654465D46AC4201D1B0
:10D0E00000F030F87E460F3E0FCCB64601263342A4
:10D0F00000D0FB1AA246AB4633431847743E0000EB
:10D10000943E0000103A02D378C878C1FAD852078A
:10D1100001D330C830C101D504680C6070470000ED
:10D120000023002400250026103A01D378C1FBD843
:10D13000520700D330C100D50B6070471FB51FBD2B
:10D1400010B510BD00F008FA1146FFF7F7FF02F026
:10D150009FFA00F020FA03B4FFF7F2FF03BC00F0DF
:10D16000BFFC0000401E00BF00BF00BF00BF00BFEB
:10D1700000BF00BF00BF00BF00BF00BF00BFF1D1B4
:10D180007047000070B505460C46164602E00FCC0D
:10D190000FC5103E102EFAD2082E02D303CC03C5C1
:10D1A000083E042E07D301CC01C5361F03E02178C9
:10D1B0002970641C6D1C761EF9D270BD03210C48C9
:10D1C00002680A4302600B4802680A4302600A4888
:10D1D00080470A480047FEE7FEE7FEE7FEE7FEE776
:10D1E000FEE7000006480749074A084B7047000061
:10D1F0002405004054050040B1D80100C1D0010011
:10D20000D8290020D8390020D8310020D83100207A
:10D21000034670B502460B439B070FD10E4CE60147
:10D2200000E008C208C91D1B9D433542F9D0D9B2A0
:10D230001170521C00290DD01B0AF8E70B78491C0D
:10D240001370521C002B05D00B78491C1370521C14
:10D25000002BF3D170BD00000101010130B5441C69
:10D2600003E00178401C00290DD08107F9D10B4B58
:10D27000DD0104C8D11A91432940FAD0001B0A06E7
:10D2800003D0C01E30BD001B30BD0A0401D0801E7B
:10D2900030BD0902FCD0401E30BD0000010101017B
:10D2A000F8B5042A2CD3830712D00B78491C0370DD
:10D2B000401C521E83070BD00B78491C0370401C86
:10D2C000521E830704D00B78491C0370401C521E69
:10D2D0008B079B0F05D0C91ADF002023DE1B08C96E
:10D2E0000AE0FFF74FFFF8BD1D4608C9FD401C4688
:10D2F000B4402C4310C0121F042AF5D2F308C91AF7
:10D30000521EF0D40B78491C0370401C521EEAD404
:10D310000B78491C0370401C012AE4D40978017081
:10D32000F8BD431A70B593421BD28918801804E0E7
:10D33000491E401E0B78521E03709307F8D106E079
:10D340001039103878C9103978C01038103A102ABE
:10D35000F6D203E0091F001F0B680360121FF9D506
:10D3600070BDFFF70FFF70BDF8B5064614460843C1
:10D37000800707D0751AA54219D20819102D13D2AB
:10D38000311907E03046FFF7CCFFF8BD401E491EBB
:10D3900002780A70641EF9D2F8BD471B2A46394646
:10D3A000FFF77EFF641B3846A542F6D3011B2246D9
:10D3B0003046FFF775FFF8BD01E004C0091F0429DE
:10D3C000FBD28B0701D50280801CC90700D00270F8
:10D3D000704700290BD0C30702D00270401C491EC1
:10D3E000022904D3830702D50280801C891EE3E74B
:10D3F0000022EEE70022DFE7002203098B422CD354
:10D40000030A8B4211D300239C464EE003460B4394
:10D410003CD4002243088B4231D303098B421CD3F6
:10D42000030A8B4201D394463FE0C3098B4201D3E8
:10D43000CB01C01A524183098B4201D38B01C01A20
:10D44000524143098B4201D34B01C01A5241030997
:10D450008B4201D30B01C01A5241C3088B4201D346
:10D46000CB00C01A524183088B4201D38B00C01AF3
:10D47000524143088B4201D34B00C01A5241411A1A
:10D4800000D201465241104670475DE0CA0F00D0FD
:10D490004942031000D34042534000229C460309F6
:10D4A0008B422DD3030A8B4212D3FC22890112BA7C
:10D4B000030A8B420CD3890192118B4208D3890154
:10D4C00092118B4204D389013AD0921100E089096C
:10D4D000C3098B4201D3CB01C01A524183098B424D
:10D4E00001D38B01C01A524143098B4201D34B0136
:10D4F000C01A524103098B4201D30B01C01A524199
:10D50000C3088B4201D3CB00C01A524183088B421F
:10D5100001D38B00C01A5241D9D243088B4201D3A8
:10D520004B00C01A5241411A00D201466346524193
:10D530005B10104601D34042002B00D54942704792
:10D5400063465B1000D3404201B50020C046C04690
:10D5500002BD704770477047754600F025F8AE462B
:10D56000050069465346C008C000854618B020B57E
:10D57000FFF738FE60BC00274908B6460026C0C544
:10D58000C0C5C0C5C0C5C0C5C0C5C0C5C0C5403D7B
:10D5900049008D46704710B50446C046C046204637
:10D5A000FFF7D9FD10BD0000004870477429002026
:10D5B000F0B587B0002600200690FF2001300590CE
:10D5C0000125002416E0059802F064FC00280BD029
:10D5D00000BF564840682840002805D0059802F052
:10D5E00051FC3046284306466D000598001D80B268
:10D5F0000590641C042CE6D3FF207D3002F04AFC29
:10D6000000280AD0FF207D3002F03CFC0120C0073A
:10D61000064300BF4648006906903007000F002807
:10D620002AD00125002425E02846304000281FD0BC
:10D6300000BF4048512109014018A10040581F2156
:10D6400009020840000A049000BF3A48512109012C
:10D650004018A1004058032109040840000C039021
:10D66000204601F099FA074603990498B84700BF8D
:10D670006D00641C042CD7D3F00FC007002852D0D3
:10D6800000244EE02C480057401C002848D02A486F
:10D69000005D0490C021049888430746384601F095
:10D6A000BFFA029001F078FA03900398002836D070
:10D6B000C02104980840801102900120B84005461E
:10D6C00000BF05200007072109024018B900405893
:10D6D000032109040840000C019006982840002806
:10D6E00002D00198022806D006982840002815D1BB
:10D6F0000198032812D1029803280BD1019802281F
:10D7000001D1032000E0022000903846009902F089
:10D7100090FB00BF3846039A0299904700BF00BFB4
:10D72000641C002CAED007B0F0BD000000630040C8
:10D730000005005000600040B026002010B5002019
:10D74000074908600021064841608160C1600020EF
:10D75000034940390860486003F0CAF910BD000071
:10D7600040110140FFB581B004460E46174600BF88
:10D770001B480078002801D100F0CEF800BF1848FF
:10D780004069A04227D900BF002C1AD0182060435E
:10D79000134948310E501820604340184760182143
:10D7A00061430F4A48328918049888600022182083
:10D7B00060430B494831401802611820604340180B
:10D7C000C26018206043064A483280180A994161B5
:10D7D00000BF002501E00025ED43284605B0F0BD5F
:10D7E000C0270020FFB581B004460E46174600BF93
:10D7F0001B480078002801D100F08EF800BF1848BF
:10D800000069A04227D900BF002C1AD0182060431D
:10D81000134918310E5018206043401847601821F2
:10D8200061430F4A18328918049888600022182032
:10D8300060430B49183140180261182060434018BA
:10D84000C26018206043064A183280180A99416164
:10D8500000BF002501E00025ED43284605B0F0BDDE
:10D86000C027002010B503F057F810BD70B50B4865
:10D87000006800280ED0094800688047044600BFB1
:10D880002546002D04D000BF284600F0F7FB00BF5E
:10D8900000BF01E001F030FD70BD0000B4220020A7
:10D8A00001480249086070470024F4001822002053
:10D8B00010B502F079F8002805D0114811494860E8
:10D8C000C8131149886102F0A1F8002802D0012094
:10D8D0000E49886002F0CCF800280ED00C48006891
:10D8E000012807D00B480A49086000BF08480068B3
:10D8F0000128FBD1C02006494861FFF7D1FF10BDC8
:10D90000DFFF07C000050040006C0040000600403B
:10D9100000EC06407593000010B5114C0220206108
:10D92000606110A0A0611249E161FA212162002129
:10D93000A1626162E1620BA0A0640E49E164102162
:10D9400021650021A1656165E1650BA1E01DFFF77F
:10D950005FFC0AA12046FFF75BFC2020A07110BDF0
:10D96000C02700205465726D696E616C0000000074
:10D97000B4260020AE270020525454005345474798
:10D980004552000030B47446641E2578641CAB42D6
:10D9900004D3635D5B00E31830BC18471D46F8E70D
:10D9A000002805DBC206D20E01219140014A116018
:10D9B0007047000080E200E0002809DB00BF00BFE4
:10D9C000C206D20E01219140024A116000BF00BF81
:10D9D0007047000000E100E0002805DBC206D20E1F
:10D9E00001219140014A11607047000000E200E00F
:10D9F00010B5002819DB1A4A03231B02D21883082A
:10DA00009B00D2588307DC0EFF23A3409A438B0769
:10DA10001B0E8407E40EA3401A43114B0324240277
:10DA20001B198408A4001A5118E00E4A03071B0FA3
:10DA3000083B9B089B00D2588307DC0EFF23A340C2
:10DA40009A438B071B0E8407E40EA3401A43054B31
:10DA50000407240F083CA408A4001A5110BD0000BC
:10DA600000E100E01CED00E010B5002819DB1A4AC7
:10DA700003231B02D21883089B00D2588307DC0EB5
:10DA8000FF23A3409A438B071B0E8407E40EA34099
:10DA90001A43114B032424021B198408A4001A51B1
:10DAA00018E00E4A03071B0F083B9B089B00D25847
:10DAB0008307DC0EFF23A3409A438B071B0E8407CA
:10DAC000E40EA3401A43054B0407240F083CA408A6
:10DAD000A4001A5110BD000000E100E01CED00E0C0
:10DAE00000BFFEE7F7B582B004461646002537882A
:10DAF00000203080606B00280ED0616B08783B46B8
:10DB00003246039902F028FC054600BF002D02D0E2
:10DB1000284605B0F0BD00BF206B00280CD03B4666
:10DB20003246206B039903F097F8054600BF002D9D
:10DB300001D02846EDE700BF2E20005D00280DD063
:10DB40002E21085D3B463246039901F067FC0546ED
:10DB500000BF002D01D02846DBE700BF2D20005D6F
:10DB600000280BD03A463146039800F0BCFD05462C
:10DB700000BF002D01D02846CBE700BFA0780028C9
:10DB80000BD03A463146039800F064FB054600BFCF
:10DB9000002D01D02846BCE700BFE07800280DD05A
:10DBA000E17848B23B463246039901F065FA0546F2
:10DBB00000BF002D01D02846ABE700BF60680028F9
:10DBC0000ED00020616808563B463246039903F0A8
:10DBD00066F8054600BF002D01D0284699E700BF32
:10DBE000208900280FDD0197009606220221204699
:10DBF0000830039B03F002F9054600BF002D01D059
:10DC0000284686E700BF208A00280FDD019700968E
:10DC10000722032120461030039B03F0EFF805464E
:10DC200000BF002D01D0284673E700BF208B0028DD
:10DC30000FDD019700961522142120461830039B12
:10DC400003F0DCF8054600BF002D01D0284660E750
:10DC500000BF206A00280CD03B463246206A039958
:10DC600001F0CAF8054600BF002D01D0284650E754
:10DC700000BF606A00280CD03B463246606A0399B8
:10DC800001F0CAFD054600BF002D01D0284640E73F
:10DC900000BF2C20005D00280CDD3B4632462046AC
:10DCA000039902F0C0FB054600BF002D01D02846B5
:10DCB0002FE700BF207800280CD03B463246204694
:10DCC000039901F0E5FD054600BF002D01D028466F
:10DCD0001FE700BF28461CE70146C8780422104011
:10DCE000002801D1072070470020FCE770B592B0F2
:10DCF0000021119106261E4A07CA6B4607C3382128
:10DD000003A8FFF777FB1321C9431191022168464D
:10DD1000017301218173C6730321818369460891D0
:10DD200011A8049010A90420085677DF04460021AA
:10DD300003A800F09DFB044600BF2546002D04D03B
:10DD400000BF284600F09AF900BF00BF182109481B
:10DD5000FFF750FB00200749087048600872FF2059
:10DD6000E1300882FF202D30488212B070BD0000E3
:10DD7000480F0200D022002070B5074873DF044628
:10DD800000BF2546002D04D000BF284600F076F9DC
:10DD900000BF00BF70BD0000D022002070B5044657
:10DDA000A378A27A61782078C2DF054600BF002DF3
:10DDB00001D0284670BD00BF23796279E1882078C0
:10DDC000D3DF054600BF002D01D02846F2E700BF93
:10DDD000E1782078CDDF054600BF002D01D0284630
:10DDE000E8E700BFA078C007C00F002803D1218951
:10DDF0002078D1DF05462846DCE7000010B5044650
:10DE00002146024800F089F810BD00005023002090
:10DE1000704730B585B004460D4628782070002044
:10DE200004906846008AA0816846408AE08100200C
:10DE30000390039820610020029068460089A08228
:10DE400068464089E08200200190032201A9204613
:10DE50001830FFF797F90020009068460088A083EB
:10DE600068464088E0832846FFF798FF05B030BD3C
:10DE7000F8B504460E4625467788FF20287068705E
:10DE8000A870EF70380A2871307868717078A871BE
:10DE9000304602F029F9F8BDF8B504460F4625468C
:10DEA0003E6830462C462070FF2109020140090AD5
:10DEB0006170FF2109040140090CA17000BF3846C0
:10DEC00002F013F9F8BDF8B504460D4626466F88F2
:10DED000287830707770380AB070284602F006F95A
:10DEE000F8BD70B504460D4626462878307068782F
:10DEF0007070A878B070284602F0F9F870BDF8B5D7
:10DF000004460D4626466F88287830707770380AA8
:10DF1000B070284602F0ECF8F8BD70B505460C4626
:10DF20002020005D2978884209D12120005D032846
:10DF300003D1284600F029F800E000BF00BF70BD03
:10DF4000F8B506460F461546A868B0606868706068
:10DF500074682878A07068786070A078002801D074
:10DF6000012000E00220E0700020207101202070DC
:10DF700039463046FFF74DFFF8BD10B50446204640
:10DF800000F003F82078C4DF10BD7CB50446694674
:10DF9000204602F0FCF920786A460821C7DF0546D2
:10DFA00000BF2E46002E04D000BF304600F066F8B9
:10DFB00000BF00BF7CBD000010B5044601492046EB
:10DFC000CCDF10BD1C22002070B5154A154916483B
:10DFD000FFF7B6FF044600BF2546002D04D000BF62
:10DFE000284600F04BF800BF00BF02200E4908751C
:10DFF0000E490D48C18201200B49087601210A48CB
:10E0000041768176FFF7B9FF044600BF2546002D13
:10E0100004D000BF284600F031F800BF00BF70BD3B
:10E02000340F0200280F0200502300209C0800003B
:10E030000EB5034A07CA6B4607C36846FADF0EBD32
:10E04000600F020000BF00BF00BF00BF00BFBFF3F2
:10E050004F8F00BF00BF00BF06480749C86000BF20
:10E0600000BF00BFBFF34F8F00BF00BF00BF00BFA6
:10E0700000BFFDE70400FA0500ED00E00EB5044620
:10E08000002000900190029002946A46002101480D
:10E09000FFF7D8FF0140000010B504463CDF10BD7B
:10E0A00002490969491C014A116170475023002047
:10E0B00010B5044602F0E0F82060002010BD00001A
:10E0C00010B503460C4600BF0D480068002801D17A
:10E0D000082010BD00BF002A01D10720F9E7002B5E
:10E0E00001D10720F5E71868007C002801D008203E
:10E0F000EFE71968002008744C744A6100BFE8E734
:10E1000090220020FFB581B00E4614461F462046DF
:10E110008107890F002901D1012100E00021002998
:10E1200002D1072005B0F0BD002C04D100201C490D
:10E1300008600720F6E702F0CFF81A4807600320CE
:10E140001949087016480460183400250CE0E900ED
:10E15000134A12688818002101704170867044606B
:10E16000182171430C196D1C032DF0DB00200F49A1
:10E1700008600F4908700F4908701420FFF710FC61
:10E1800003211420FFF770FC1420FFF715FC019801
:10E1900002F078F802F070F8074908600020C1E743
:10E1A00090220020A82200208C220020942200200F
:10E1B000A4220020A522002098220020FEB50446BB
:10E1C0000D461746264600BF12480068002801D1B8
:10E1D0000820FEBD00BF002C01D10820F9E7052D65
:10E1E00001D20720F5E77069002801D10820F0E787
:10E1F000707C012801D1284600E00020029002F046
:10E20000D3FD009701902A463146029B02F024FC80
:10E21000DFE700009022002070B50446254600BFCD
:10E220000B480068002801D1082070BD00BF002CF9
:10E2300002D06869002801D10820F6E70020287480
:10E2400002F0B2FD0646294602F032FCEDE700007E
:10E2500090220020F8B505460C4617462088001D80
:10E26000B84201D90C20F8BD684679DF064600BFE8
:10E27000002E01D03046F6E700BF03202188685405
:10E280002088401C20801920218868542088401C48
:10E290002080208841196846008802F02DFD2188E1
:10E2A000401820800020DEE7F0B591B004460D460E
:10E2B000207D002819D00020099000BF08A800790F
:10E2C00001090901491C08A801710079F02188435E
:10E2D000103008A9087100BF697B08A841718079D6
:10E2E00006218843801C08A988711C210AA8FFF711
:10E2F00081F808A8007A02218843811C08A80172CD
:10E30000007A10218843217D002901D0012100E0FD
:10E310000021090110221140084308A908720020B9
:10E320000B900D900E90207D002801D009A800E0F0
:10E3300000200F900020109000BF012168468173DB
:10E340004949818100BF00200290A97B6846017283
:10E35000E97B4172807A06218843811C684681727C
:10E36000807A08218843014668468172807A1021AC
:10E370008843014668468172807A410849006846B0
:10E380008172297B0191142104A8FFF733F803A8B7
:10E39000049002A805900121684601830021418371
:10E3A0000121818301A80890A088A31D04AA0AA9BD
:10E3B000A2DF0646002E02D0304611B0F0BDA8689C
:10E3C00000284DD000BF0121684681732749818113
:10E3D00000BF00200290287C6946087200BF684692
:10E3E000407A0109090168464172407AF021884368
:10E3F0006946487200BF6846807A06218843811CBE
:10E4000068468172807A0821884301466846817295
:10E41000807A10218843014668468172807A4108DB
:10E42000490068468172A96800F034FB0746142150
:10E4300004A8FEF7DFFF03A8049002A80590684631
:10E44000078300214183018B81830890E088224665
:10E450000E3204A9A3DF0646002E03D03046ACE7F7
:10E460000020E0810020A8E7192A00000829000008
:10E47000F3B593B00D461F21129111911398002806
:10E4800018D01398FFF728FC044600BF002C02D0D8
:10E49000204615B0F0BD00BF12AA09A91398FFF7D6
:10E4A00021FB044600BF002C01D02046F1E700BF4D
:10E4B00009AE02E0002600201290002D17D0284659
:10E4C00002F0B2F9044600BF002C01D02046E0E77C
:10E4D00000BF11AA01A92846FFF704FB044600BFAC
:10E4E000002C01D02046D4E700BF01AF02E0002796
:10E4F0000020119010A88088C3B210A80089C1B272
:10E500003A46304672DFC4E733B587B00446002C84
:10E5100002D10E2009B030BD0025207C08A9097861
:10E52000884233D000200590069001216846818200
:10E530000021C18208A80690E188608A05AAA4DFAC
:10E540000546002D03D108A80078207401E0284674
:10E55000E0E7608A0E49884217D0207D002814D059
:10E5600000200190029003900490E1886846818029
:10E5700001218171C18A018105A803900698049048
:10E58000608A01A9A6DF054600E008252846C1E704
:10E59000FFFF0000F8B504460D46002C01D0002D09
:10E5A00001D10E20F8BD286820600020C0436082A1
:10E5B00028792075FF20207400BF012168468170F2
:10E5C0000849018000BF221D69460120A0DF0646E0
:10E5D000002E01D03046E5E729462046FFF764FECD
:10E5E000E0E700000F18000070B505460C46002D4E
:10E5F00001D0002C00D170BD2088102804D0112833
:10E6000007D050280FD109E02146284601F09CFC94
:10E610000AE02146284601F0BBFC05E021462846D9
:10E6200001F0FFFC00E000BF00BF00BFE3E7000017
:10E6300070B505461C2229461448FEF7A3FD0020AC
:10E6400013490870286800280BD00822114829684F
:10E65000FEF726FE0F487ADF0446002C08D020463D
:10E6600070BD0C487BDF0446002C01D02046F7E744
:10E670000020C04308490880002008490870084A63
:10E6800000210848FFF71CFDEAE7000040260020B3
:10E690008A22002076220020802200207E22002074
:10E6A0000D0D02006C0F020010B5044620881028E2
:10E6B00006D0112808D012280ED0502810D107E01B
:10E6C000204601F047FC0CE0204601F069FC08E020
:10E6D000204601F0DBFC04E0204601F029FC00E0CC
:10E6E00000BF00BF10BDFEB505460C46174620888A
:10E6F0000930B84201D90C20FEBD684671DF0646DC
:10E7000000BF002E01D03046F6E700BF0820218868
:10E7100068542088401C20801B2021886854208851
:10E72000401C208021884819062200A90131FEF7EB
:10E73000B7FD2088801D208068460078002802D11F
:10E740002188685402E00120218868542088401CF8
:10E7500020800020D0E700007FB5044600BF0121E3
:10E76000684681735D49818100BF5D4A03A901202C
:10E77000A0DF0546002D02D0284604B070BD2088D9
:10E7800000280DDD57480090228823463C33564828
:10E79000616800F04BFA0546002D01D02846ECE7F1
:10E7A000208900280EDD51480090228923463C3301
:10E7B0004D48401FE16800F039FA0546002D01D0B0
:10E7C0002846DAE7208A00280EDD49480090228A90
:10E7D00023463C334448001F616900F027FA054690
:10E7E000002D01D02846C8E7208B00280EDD4148C7
:10E7F0000090228B23463C333B48801EE16900F0A9
:10E8000015FA0546002D01D02846B6E7208C0028D1
:10E810000EDD39480090228C23463C333248C01E1E
:10E82000616A00F003FA0546002D01D02846A4E7EE
:10E83000208D00280EDD31480090228D23463C3388
:10E840002948401EE16A00F0F1F90546002D01D08B
:10E85000284692E7206B002813D001A8216B01F015
:10E86000EBFF274823463C33082201A900901E48AD
:10E87000801F00F0DBF90546002D01D028467CE71B
:10E8800000BF606B00280FD01E480090606B0279BB
:10E8900023463C3301681448401C00F0C7F9054684
:10E8A000002D01D0284668E7A06B002813D001A8EE
:10E8B000A16B01F065FC144823463C33072201A9F3
:10E8C00000900948273000F0B1F90546002D01D02D
:10E8D000284652E700BF00204FE700000A1800005A
:10E8E0002C2200202E220020292A0000362200207F
:10E8F0003E220020462200204E22002056220020E8
:10E900005E220020662200206E22002010B5044600
:10E910002146074800F07AF821460648FFF764FED2
:10E920002046FFF7C1FE204601F0C6FA10BD0000E8
:10E93000E822002038230020F0B58BB004460F46B3
:10E94000208C1549884222D006AA3946204600F07C
:10E9500075FC0646059600200190029003900490F5
:10E96000218968468180012181710021018105A8EA
:10E97000039006A80490208C01A9A6DF0546002D6F
:10E9800004D16846808AB04200D00C2500E00825FA
:10E9900028460BB0F0BD0000FFFF0000F8B50446AC
:10E9A0000E4630682060307960710020C0432084BA
:10E9B0000021222001554C20015300BF012168464F
:10E9C00081701149018000BFA21D69460120A0DFAE
:10E9D0000546002D01D02846F8BD3146204600F0FE
:10E9E000B5FB0546002D01D02846F5E7B0680028A4
:10E9F00008D03146204600F069F80546002D01D0C8
:10EA00002846E9E70020E7E70D18000070B5054645
:10EA10000C462088102804D0112807D050280FD188
:10EA200009E02146284601F092FA0AE021462846EC
:10EA300001F0B2FA05E02146284601F01AFB00E099
:10EA400000BF00BF70BD70B504460D464C20005B92
:10EA500014280AD12622A118881EFEF785FC4C2016
:10EA6000005B401E81B24C2001534C20015B005BD7
:10EA7000401C82B24C2002534900204624304552AB
:10EA800070BD70B504460D462846FEF7E7FB2080B2
:10EA9000656070BDF8B505460E4600243278214603
:10EAA000641C6A5472782146641C6A5400BF022CAC
:10EAB00001D1012000E000200746002F03D100BF54
:10EAC000FFF7DCFA00BF00BF2046F8BD30B58FB0BD
:10EAD00005460C461C2108A8FEF78CFC08A90878FE
:10EAE00002218843801C08A90870002009900B901F
:10EAF0000C900D900E9000BF0121684681721D4957
:10EB0000018100BF00200190E17B68460171217CFA
:10EB10004171807906218843811C68468171807922
:10EB20000821884301466846817180791021884315
:10EB300001466846817180794108490068468171C3
:10EB4000142103A8FEF756FC02A8039001A8049024
:10EB50000121684681820021C18201210183A068D0
:10EB60000790E8882B46103303AA08A9A2DF0FB04C
:10EB700030BD0000382A00000021C9438200054B47
:10EB80009950042804DB0B46011F024A34325354C7
:10EB9000704700007C26002001468800014A10587A
:10EBA000704700007C260020F7B585B00B4600209A
:10EBB000C0430490002A01D0002000E0042003900C
:10EBC000002A01D0042000E00520029003991EE0F5
:10EBD0008800124C2058401C002817D10846059C7C
:10EBE0000093019246B20D4D14352E5585000B4E03
:10EBF000009B7351019A002A04D166B2051F074F8A
:10EC000034377E5500BF48B2049003E0491C029897
:10EC10008142DDD300BF049808B0F0BD7C260020FF
:10EC2000014601484056704790260020F0B58FB04D
:10EC300007460D4614461E4600BF002D01D0012098
:10EC400000E0002000900098002803D100BFFFF7EB
:10EC500015FA00BF00BF00BF002C01DD012000E05D
:10EC6000002000900098002803D100BFFFF706FAAB
:10EC700000BF00BF1C2107A8FEF7BCFB6946087F48
:10EC800002218843801C69460877002008900A907A
:10EC90000B900C900D9000BF012108A8817668466A
:10ECA000078700BF002001903178684601717178B4
:10ECB0004171807906218843811C68468171807981
:10ECC0000821884301466846817180791021884374
:10ECD0000146684681718079410849006846817122
:10ECE000142102A8FEF786FB0EA8029001A803904B
:10ECF00068460482002141828482069502AA07A9FF
:10ED000002480088149BA2DF0FB0F0BD2C22002027
:10ED1000FEB51F480068002836D01D480068056809
:10ED200001F0AAFA01901B4804682146019801F0FD
:10ED3000CFFDC61C18480078002801D101F0AEFABA
:10ED4000AE4201D2284600E0304604192402240ACB
:10ED5000204601F08BFA01F08FFA0090019900989B
:10ED600001F0B6FDC71C2046019901F0B1FD8742B4
:10ED700009D901F081FA074601F078FA2F20FEF751
:10ED8000F1F901F0FFFE01E001F0A6FAFEBD00007E
:10ED90009422002098220020AC22002001460888FE
:10EDA000062808DB08881922D201904205DD088870
:10EDB000104A904201D0072070474888062808DB97
:10EDC00048881922D201904205DD4888094A9042BC
:10EDD00001D00720F0E70888064A904208D048880A
:10EDE000904205D008884A88904201DD0720E3E779
:10EDF0000020E1E7FFFF0000FFB581B006460D46A9
:10EE000014462088801D0499884202D90C2005B040
:10EE1000F0BD3046FFF7C2FF074600BF002F01D00C
:10EE20003846F4E700BF0520218868542088401C3C
:10EE300020801220218868542088401C208022884D
:10EE40005119308801F058FF21884018208022880D
:10EE50005119708801F050FF21884018208000204F
:10EE6000D5E7704730B587B01C216846FEF7C2FA77
:10EE7000002000900520800201900F20C002029027
:10EE80000321684601730D4881896846C1810021CC
:10EE900001740B4805900B4806906846FFF7C8FBC5
:10EEA000044600BF2546002D04D000BF2846FFF7CA
:10EEB000E5F800BF00BF07B030BD0000E822002029
:10EEC00011FF010063EE010038B51F4800F094FA0D
:10EED000002829D11D48007800280AD01C48406924
:10EEE000002820D0002000901948416968468847D2
:10EEF00019E018480078002802D11548456801E05B
:10EF0000134885680022294613480068FFF756F920
:10EF10000446002C07D00E488069002803D00C4816
:10EF20008169204688470AE009484069002806D0E0
:10EF300001200090064841696846884700BF0020CC
:10EF40000249087038BD0000822200208A22002079
:10EF5000402600207E2200206C0F020010B51448CD
:10EF60004068C105C90D002920D00A46103A50B2A8
:10EF700000280CDB0F4B032424021B198408A40077
:10EF80001B598407E40EE3401B069B0F0CE0084B63
:10EF90001C330407240F083CA408A4001B59840751
:10EFA000E40EE3401B069B0FD8B210BD0420FCE723
:10EFB00000ED00E000E100E0014614480078144A4A
:10EFC000127890421DD011480078401C0F4A1070F2
:10EFD00010460078022801D1002010700B480078FC
:10EFE00080000C4A105808600B4A086812688018A4
:10EFF000094A1060104600680002000A10600120F3
:10F0000070470020086000BFFAE70000A42200203B
:10F01000A52200209C22002098220020F0B5034663
:10F02000002420E0134E306806689E4203D906682B
:10F03000F61A06601BE006689B1B0668341900265A
:10F0400006600C4E35680B4FC6693E60C668002EE0
:10F0500008D00E193602360A4660C6688660166801
:10F06000C661156000BF034800680028DAD100BF00
:10F07000F0BD00009422002030B504461088C01C6A
:10F08000984201D90C2030BD0220158848551088BF
:10F09000401C10800120158848551088401C1080A5
:10F0A00015884C551088401C10800020EBE70000AC
:10F0B0003EB500BF6846007801090901491C00916E
:10F0C00068460078F02188431030009000BF072286
:10F0D0001BA168467CDF044600BF2546002D04D0F6
:10F0E00000BF2846FEF7CAFF00BF00BF164878DF02
:10F0F000044600BF2546002D04D000BF2846FEF779
:10F10000BDFF00BF00BF002001900290FF214131F0
:10F11000684681804121C900C18000210181FF2111
:10F120009131418101A87ADF044600BF2546002DB8
:10F1300004D000BF2846FEF7A1FF00BF00BF3EBDC0
:10F140004746585F48524D004103000030B595B026
:10F1500005460C4600200D9000BF08A8007D01095F
:10F160000901491C08A80175007DF0218843103071
:10F1700008A9087500BF217B08A84175807D06217C
:10F180008843811C08A881751C210EA8FEF732F95E
:10F1900008A8007E10218843103008A908760020B6
:10F1A0000F90119012900DA813900020149000BFA2
:10F1B0000121684681772049818300BF00200690A5
:10F1C000617B68460176A17B4176807E062188437B
:10F1D000811C68468176807E082188430146684606
:10F1E0008176807E10218843014668468176807E44
:10F1F00041084900491C68468176142108A8FEF799
:10F20000F9F807A8089006A8099001AA0021284645
:10F2100000F014F80146684601850021418514215B
:10F22000818501A80C90E8882B46083308AA0EA90E
:10F23000A2DF15B030BD0000372A0000F7B582B05C
:10F24000044617460020019001256079002803D06C
:10F2500004210198084301902220005D002803D07A
:10F2600002210198084301900398FF280ADD01213B
:10F270000198084301907919039801F034FD401971
:10F28000C5B205E00398C2B22846691CCDB23A5413
:10F290004C20005B002803DD1021019808430190F9
:10F2A000002618E0A81C14280BD94C20005B801BFA
:10F2B0004200700023462433C1181846FEF754F864
:10F2C0000DE07919720023462433985A01F00BFDA2
:10F2D0004019C5B2761C4C20005BB042E2DC00BF96
:10F2E0004C20005B801B81B24C2001530198387088
:10F2F000284605B0F0BD0000F8B538480078002871
:10F3000000D1F8BD36480068002801D1012000E096
:10F310000020054633480068002801D1012000E0A4
:10F320000020064630480068002801D1012000E096
:10F330000020074600BF002D12D1684651DF044669
:10F34000052C01D101250AE0002C04D000BF204685
:10F35000FEF794FE03E0224900980968884700BF41
:10F36000002E18D121480088009069462048006886
:10F3700061DF0446052C01D101260BE0002C04D0EE
:10F3800000BF2046FEF77AFE04E0194800681549E0
:10F390000968884700BF002F14D1164A1146213151
:10F3A000481EC1DF0446052C01D101270AE0002CCC
:10F3B00004D000BF2046FEF761FE03E00D480A4975
:10F3C00009688847002D04D0002E02D0002F00D0FD
:10F3D00000E0B0E700BF00BF93E70000B8220020C4
:10F3E000CC220020C4220020C8220020C0220020FD
:10F3F000BC2200205029002001464888064A128875
:10F40000904206DB4888044A5288904201DC012081
:10F4100070470020FCE700007622002030B504464B
:10F420001088C01C984201D90C2030BD02201588DC
:10F4300048551088401C10801C201588485510889D
:10F44000401C1080012C06D0022C08D0032C0AD0BE
:10F45000042C10D10BE00020158848550DE0012048
:10F460001588485509E002201588485505E0032015
:10F470001588485501E00720D7E700BF1088401CD9
:10F4800010800020D1E70000F8B521480068009006
:10F49000204806782EE0F0001F49096844182578B6
:10F4A00024E01820684361680F18681CC5B2A07872
:10F4B000A84200D100253878022802D0032812D1B2
:10F4C00003E0786801F090FA0EE007E01049086860
:10F4D000002101740E4AC169116000BF0C48006828
:10F4E0000028F3D100E000BF00BF00BF6078A84251
:10F4F000D7D100BF3046711ECEB20028CBD1044810
:10F5000001680098814201D00120F8BD0020FCE78D
:10F51000942200208C22002090220020FEB5064676
:10F520003C48006801903C480078009063E00098F7
:10F53000C0003A490968451856E0002E02D034460A
:10F54000E66924E02978182359436A685018297815
:10F55000491C29702978AA78914201D1002129708B
:10F5600044680178012902D1217C002900D03BE0C8
:10F5700081686160C168A1600169E1604169A16160
:10F5800027490978002901D00021616000BF254981
:10F5900060680968401A0002000A2349884208D2BC
:10F5A00020496068096801F093F9A168401820605B
:10F5B0000FE01C486168006801F08AF90746A068FE
:10F5C000B84203D9A068C01B206001E00020206081
:10F5D00000BF00206060A060012020740020E06176
:10F5E000204601F0CBF900BF002EA6D1287869781B
:10F5F0008842A2D100BF0098411EC9B200910028E4
:10F6000095D1044801680198814201D00120FEBDD6
:10F610000020FCE7942200208C2200209022002071
:10F62000AD22002098220020FFFF7F0008B511487E
:10F630000078002801D0002008BD0120FA230E4ADE
:10F640000EA100900020FEF7CDF8002801D0082080
:10F65000F2E7002010230B4A0BA10090FEF782F87E
:10F66000002801D00820E7E70120024908700020A7
:10F67000E2E70000AE220020382800204E6F726DB5
:10F68000616C000032290020496E70757400000022
:10F690008EB000240027554903C90D910C90002518
:10F6A000002168460171417100F0A6FB00280CD1D1
:10F6B00000F07AFB044600BF2646002E04D000BFAF
:10F6C0003046FEF7DBFC00BF00BF4848083000684A
:10F6D0000090474A6946072000F0ECFA0121072014
:10F6E00000F084FA01F054FA01F038F8FFF7E0FC7A
:10F6F000FEF7FCFA00F0E2FEFFF7B4FBFEF73CFB7E
:10F70000FEF762FC0CA800F0E5F9002000F00AFA10
:10F71000410040184B21090148430646FF21FDF7EF
:10F7200075FE344908800988AF221201891A6422C3
:10F7300051430846FF21F531FDF768FE2E49087058
:10F7400008460078642801DD642001E02A4800783A
:10F7500029490870084601782848FEF7D5FE44E09C
:10F760002748007800283FD0264800882649098885
:10F77000401A87B2394601A800F048FD6846407932
:10F78000002804D001A800F05BFD054605E03946DD
:10F790000F200003FDF730FEC5B21C48007B401C63
:10F7A0001A490873084645731748008881B21748FC
:10F7B000C1831448008881B21448C1813946144875
:10F7C000FFF741F929461248FFF7B6F800200C4927
:10F7D000087010480068FEF71FFD00220521C902CD
:10F7E0000C480068FEF7EAFC48DFB9E7540F020056
:10F7F000F50002000E2200201022002038230020F5
:10F800000C22002008220020042200205023002087
:10F81000E8220020440F0200FFB581B005460E46E5
:10F820001446A888871C2088801CC119049881422E
:10F8300002D90C2005B0F0BDFE2F01D90C20F9E74C
:10F84000781C218870542088401C2080FF2021884B
:10F8500070542088401C208022889119288801F04B
:10F860004BFA218840182080A88800280EDDA8685F
:10F87000002801D10720DDE7AA8823889819A96804
:10F88000FDF70EFD2088A988401820800020D1E7D0
:10F89000FFB583B005460F4614462878012805D1E8
:10F8A0006878002802D1072007B0F0BD2088801CAE
:10F8B0000699884209D82878012808D12088801C18
:10F8C000697841180698814201D90C20ECE721881B
:10F8D0000698401A801E86B201962188891CC81994
:10F8E00001A97DDF029000BF0298002801D0029894
:10F8F000DAE700BF2878022806D168468088B0423F
:10F9000002DC092000900BE00820009028780128F4
:10F9100005D16878B04202DC6878019000E0019679
:10F9200068468088FE2801D90C20BDE7684680889B
:10F93000401C218878542088401C20802188009811
:10F9400078542088401C20802188684680880818C8
:10F9500020800020A8E710B5034659680A79402A9C
:10F9600010D1C87800220A71CA78521CCA70CA78AD
:10F97000032A08DD8A78002A01D0012200E0022251
:10F98000CA7000E048780A79D417A40FA418A4100C
:10F99000A400141B03D10A78012462400A700A797A
:10F9A000521C0A7110BD000000B51748008CC2B28D
:10F9B0001548806AF02318400109012A22D10B0062
:10F9C000FDF7E0FF0E080A0C0E1020201214161886
:10F9D0001A1C1E20012000BD0120FCE70020FAE7D0
:10F9E0000120F8E70020F6E70020F4E70020F2E726
:10F9F0000020F0E70020EEE70020ECE70020EAE737
:10FA00000020E8E70020E6E7C00F00F000B5174847
:10FA1000008CC2B21548806AF02318400109012AFF
:10FA200022D10B00FDF7AEFF0E080A0C0E102020AD
:10FA3000121416181A1C1E20002000BD0020FCE71E
:10FA40000120FAE70020F8E70120F6E70020F4E7BC
:10FA50000020F2E70020F0E70020EEE70020ECE7CE
:10FA60000020EAE70020E8E70020E6E7C00F00F00A
:10FA700000B51748008CC2B21548806AF0231840C0
:10FA80000109012A22D10B00FDF77CFF0E080A0CA8
:10FA90000E102020121416181A1C1E20002000BD63
:10FAA0000020FCE70020FAE70020F8E70020F6E756
:10FAB0000020F4E70020F2E70020F0E70120EEE765
:10FAC0000020ECE70020EAE70120E8E70020E6E775
:10FAD000C00F00F070B50446002520788007800F25
:10FAE0000543607880001C210840054360684001A0
:10FAF000602108400543C90260680840002802D020
:10FB0000606808400543002000F038F80448406869
:10FB1000FF210902084028430149486070BD0000E8
:10FB20000075004070B50546284600F027F800BF74
:10FB300001200F49086000BF00BF00BF0D480068EA
:10FB4000002801D0012000E000200028F5D000BFEF
:10FB500000200849086000BF00BF0748846800BF54
:10FB600000BF01200249486000BF204670BD000070
:10FB70000070004000710040007500400102084A1A
:10FB80005268FF231B029A431143054A5160002823
:10FB900002D00121116002E00021014A116070478A
:10FBA0000075004070B504460D4629462046FDF715
:10FBB0001FFF2046002805DBC206D20E012191401E
:10FBC000084A116000BF2046002809DB00BF00BFC3
:10FBD000C206D20E01219140034A116000BF00BF4E
:10FBE00000BF70BD80E200E000E100E0FEB5054628
:10FBF0000E46284600F0A0FA002820D02846FFF73D
:10FC00000FF8001F28490F5CBC11032C0CD100BF5A
:10FC1000264800690121A9400840002801D003209E
:10FC200000E00220019005E0012C01D1022000E05B
:10FC3000032001902846019900F0FBF832E02846A5
:10FC400000F086FA00282DD02846FEF7E9FF04468A
:10FC5000A000FF30013080B20190204614495122AB
:10FC6000120189188200895801221143104A512338
:10FC70001B01D2188300D15000BF019800F002F997
:10FC8000002E0ED02846FEF7CBFF0090FEF784FF33
:10FC90000746002F04D00121A140084600F006F9D4
:10FCA00000BF00BFFEBD0000B026002000050050D0
:10FCB00000600040F7B584B004460E460020039073
:10FCC000204600F02BFA002802D00820039060E0C4
:10FCD000F27820460699FEF767FF0546681C002863
:10FCE00054D0B078002810D000BFA1002A4A89184B
:10FCF00009680222914308460521090707221202DA
:10FD00008918A200885000BF0BE07778002000908F
:10FD10003B46024601460190204600F077F800BFBE
:10FD200000BFF078002826D037781C4851210901FF
:10FD30004018A90040581A49084018495122120198
:10FD40008918AA0088501548512109014018A900B6
:10FD5000415820021F22120210403A0403231B04C0
:10FD60001A40104301430D48512212018018AA0085
:10FD7000815000BF0CE0281F0A49085C31788901D6
:10FD8000084342B2281F07490A5401E004200390A7
:10FD900000BF039807B0F0BD0007005000600040AE
:10FDA000FFE0FCFFB026002010B51248407D00287F
:10FDB00001D0082010BD002404E0204600F0D8F94E
:10FDC000601CC4B2202CF8DB002404E02046FEF7BF
:10FDD000D3FE601CC4B2052CF8DB03210620FFF71C
:10FDE000E1FE0120C00700F061F8012101484175E2
:10FDF0000020DFE79C2600200348407D002801D03A
:10FE0000012070470020FCE79C260020F0B5059CEF
:10FE100055000D439E00354326023543069E3604A9
:10FE200035430526360707273F02F6198700F551A7
:10FE3000F0BD10B50522120707231B02D21883005C
:10FE4000D25803231B049A4305231B0707242402CB
:10FE50001B1984001A510522120707231B02D2180E
:10FE60008300D2580B041A4305231B0707242402DE
:10FE70001B1984001A5110BD01460148081870472B
:10FE80000060004010B504462046FFF7F5FF002152
:10FE9000016010BD10B504462046FFF7EDFF006875
:10FEA000012800D110BD0020FCE700000149486096
:10FEB000704700000063004010B5044620881328F6
:10FEC00011D004DC102807D011281BD108E0192814
:10FED00010D0522816D10EE0A0880C49088012E0FC
:10FEE000FDF74AFF0FE000231A46852107480088E6
:10FEF0007FDF08E007E00323002211460348008863
:10FF0000A9DF00E000BF00BF10BD000000220020FC
:10FF100010B504462078002804D13B21034800880E
:10FF200076DF00E000BF00BF10BD0000002200200F
:10FF300010B504460822A11D0248FDF7B1F9FEF7ED
:10FF4000C3FF10BD822200208A88428270478A88BF
:10FF50000284704710B50446A08809490880082229
:10FF6000214616310748FDF79BF900200649087025
:10FF70000648C089002801D1FEF7A6FF10BD000089
:10FF800080220020822200207E22002040260020A5
:10FF90000022D243428270470022D243028470473B
:10FFA00070B505460020C0430A49088000200A4970
:10FFB00008700A480068FEF72FF90446002C07D0A5
:10FFC00007488069002803D0054881692046884792
:10FFD00070BD0000802200207E2200206C0F0200F5
:10FFE0004026002038B505460C46208B022817D144
:10FFF0002868002814D000BF00BFA17EE27E120254
:020000040002F8
:1000000011430846C107C90F002902D00020009003
:1000100001E001200090694628462A68904700BF09
:1000200038BDF8B504460E46207D002820D0B51D09
:100030002988608981421AD1288B022817D120682B
:10004000002814D000BF00BFA97EEA7E120211432F
:100050000846C107C90F002902D00020009001E026
:1000600001200090694620462268904700BF00BFEB
:10007000F8BD70B504460D46AE1D3188A089814299
:1000800003D131462046FFF7ADFF70BD70B5054680
:10009000AC1D20881249C989884220D1208B0228B2
:1000A0001DD100BF00BFA17EE27E120211430846AF
:1000B000C107C90F002902D0FEF706FF0FE009486B
:1000C0000068FEF7A9F80646002E07D004488069AC
:1000D000002803D0024881693046884700BF70BDC0
:1000E000402600206C0F0200704770477047704731
:1000F0007047000070B504460D4605480068054984
:1001000008600348FDF7D4FF01200349087070BD63
:1001100008220020042200200C220020014605486D
:100120004056C017401C002801D001207047002015
:10013000FCE70000902600200146044840560428B1
:1001400001DB012070470020FCE700009026002022
:10015000014606484056002805DB0448405604285E
:1001600001DA012070470020FCE700009026002003
:100170000022D24301490A54704700009026002013
:10018000F8B505460E46002400BF002E01D0012020
:1001900000E000200746002F03D100BFFDF76EFFEF
:1001A00000BF00BF00BF002D01D0012000E00020F3
:1001B0000746002F03D100BFFDF760FF00BF00BF5F
:1001C00032782046611CCCB22A542919708800F07C
:1001D00081FD0019C4B22919B08800F07BFD001917
:1001E000C4B22919F08800F075FD0019C4B200BF2F
:1001F000072C01D1012000E000200746002F03D189
:1002000000BFFDF73BFF00BF00BFF8BD0246FF295E
:1002100003DD0120C002814201DD107870471078B3
:100220004300901CC1521078132803DA1078401C48
:10023000107003E000201070012050701078EDE77E
:1002400070B506460024002500BF05E06100B01C23
:10025000405A4519601CC4B2142CF7DB29464B20C8
:100260008003FDF7C9F8C0B270BD00000149086005
:100270007047000040150140014840687047000089
:100280000015014010B50446034884600321112085
:10029000FDF7EAFB10BD00000015014010B501207C
:1002A00000040A4948600949403948601120FDF7B7
:1002B00077FB1120FDF780FB0120054908602F2006
:1002C000FCF750FF01200349087010BD40130140A6
:1002D00000100140AC22002010B51120002815DBD1
:1002E000C206D20E01219140164A116000BF00BF24
:1002F00000BFBFF34F8F00BF00BF00BF00BF00BFF4
:1003000000BFBFF36F8F00BF00BF00BF00BF012061
:1003100000040D4988600C494039886001200B4970
:1003200048602F20FCF71EFF01200849886000204C
:10033000074908602F20FCF715FF002005490870C9
:1003400010BD000080E100E04013014000100140BA
:1003500098220020AC22002030B504461088C01C32
:10036000984201D90C2030BD0220158848551088CC
:10037000401C10801120158848551088401C1080A2
:1003800010880C541088401C10800020EBE7F8B552
:1003900005460E463446686800902846FFF7DBFAAB
:1003A00047067F0E2078C009C001384320702078AE
:1003B0008021884300990978C901802211400843AF
:1003C000207029460C31601CFDF752FD2078400654
:1003D000400E0300FDF7D6FA0504050B11171D00AA
:1003E00018E029461031601CFDF756FD12E0294641
:1003F0001431601CFDF767FD0CE029461831601CC4
:10040000FDF76FFD06E029461C31601CFDF777FD06
:1004100000E0F8BD00BF20784106490E2846AA68D2
:10042000904700BFF5E7FEB507460E461446B86A8A
:10043000002801D10720FEBD0020019037E0B96AF5
:100440000C22019850430D18A888801C0090009839
:10045000FE2801D90C20EEE70098401C218870543A
:100460002088401C20801620218870542088401C41
:10047000208022889119288800F03EFC21884018AD
:100480002080A88800280EDDA868002801D1072058
:10049000D1E7AA8823889819A968FCF701FF20886A
:1004A000A988401820800198401CC0B201902C20DF
:1004B000C15D01988142C2DC0020BCE730B59BB031
:1004C00001210091142116A8FCF794FF002016903A
:1004D000002110A801776846189000BF18A800797D
:1004E00001090901491C18A801710079F02188430C
:1004F000103018A9087100BF00BF16A8407B000982
:100500000001401C16A9487316A8407BF0218843BF
:10051000103016A9487300BF00BF16A8807B0009E1
:100520000001887316A8807BF021884316A9887380
:1005300000BF00BF18A8C07901090901491C18A80B
:10054000C171C079F0218843103018A9C87100BF6B
:1005500000BF16A8007C0009000116A9087416A89F
:10056000007CF021884316A9087400BF4A48FEF7B2
:1005700015FA044600BF2546002D04D000BF2846CA
:10058000FDF77CFD00BF00BF402106A8FCF732FF4D
:1005900042A106A8FEF775FA00BF10A8007D010968
:1005A0000901491C10A80175007DF0218843103015
:1005B00010A9087500BF00BF15A840780009000108
:1005C00015A9487015A84078F021884315A94870EE
:1005D00000BF06A8FEF7C0F8044600BF2546002D60
:1005E00004D000BF2846FDF749FD00BF00BF14211D
:1005F00001A8FCF7FFFE00BF6846407C0109090125
:10060000491C68464174407CF0218843103069469B
:10061000487400BF00BF01A8807B00090001401C96
:1006200001A9887301A8807BF0218843103001A9BB
:10063000887300BF00BF01A8C07B00090001401CF7
:10064000C87301A8C07BF0218843103001A9C8738A
:1006500000BF00BF6846007D01090901491C6846CA
:100660000175007DF021884310306946087500BF90
:100670000120087201A90A48FDF78CFF044600BF5B
:100680002546002D04D000BF2846FDF7F7FC00BF2B
:1006900000BF1BB030BD0000E822002047465800D4
:1006A00038230020014600BF002901D10E207047E9
:1006B00000BF024801600020F9E70000C8220020C6
:1006C000014600BF002901D10E20704700BF02483B
:1006D00001600020F9E70000C422002070B5064642
:1006E0000C46154629462046C046C04670BD00004F
:1006F000FFB581B00C4616461F46FEF797FF002C4B
:1007000002D1072005B0F0BD20468107890F0029DE
:1007100001D1012100E00021002901D10720F1E7EA
:10072000094804600948068009480760094901989A
:1007300010DF0546002D01D02846E3E701200649D9
:10074000087016202EDFDDE7BC220020C02200202A
:10075000B4220020DD060200B82200207CB500BFD4
:10076000002348222D490820FFF7C2FF054600BF9D
:100770002E46002E04D000BF3046FDF77FFC00BFA0
:1007800000BF00BF00200090019001206946087062
:10079000684660DF044600BF2546002D04D000BF38
:1007A0002846FDF76BFC00BF00BF1D48FFF788FF20
:1007B000044600BF2546002D04D000BF2846FDF7A3
:1007C0005DFC00BF00BF1748FFF76CFF044600BF89
:1007D0002546002D04D000BF2846FDF74FFC00BF82
:1007E00000BFFDF725FC044600BF2546002D04D0C0
:1007F00000BF2846FDF742FC00BF00BF0020FDF708
:10080000DBFB044600BF2546002D04D000BF284670
:10081000FDF734FC00BF00BF7CBD0000B02300200A
:100820000DE90100FDDD01000146C878002801D076
:10083000072070470020FCE770B504460D4600BF56
:10084000002D01D0012000E000200646002E03D13B
:1008500000BFFDF713FC00BF00BF00BF002C01D09C
:10086000012000E000200646002E03D100BFFDF766
:1008700005FC00BF00BF2878207029882879FF2355
:100880001B02194000200206080A104360702879F4
:100890001B022968194000200204080C1043A070B4
:1008A00029791B022868184000210902000E08431C
:1008B000E07028792071287A6071190CA8680840C6
:1008C000000AA0710902A8680840000CE07170BD20
:1008D0000246501A0002000A7047000070B5044634
:1008E0000C480068002810D00A4AA16960691268A3
:1008F0009047054600BF2E46002E04D000BF30466C
:10090000FDF7BCFB00BF00BF02E06169A06988473A
:1009100070BD0000A8220020FEB500200190114803
:100920000468114807686846FEF746FB0546FEF76F
:10093000ABFD0646002D05D001AA21460098FEF722
:100940006DFB01260198FEF7E9FD002800D0012685
:10095000002E02D03846FEF7DBF90020034908706C
:10096000FEBD00009822002094220020AD2200202D
:1009700010B51420FDF730F810BD000010B519496E
:100980000968002902D1174908602AE0154A016860
:100990001268126891420DD8124909680968026804
:1009A000891A104A126811600E490968C1610D491F
:1009B000086016E002680B4C2368216803E00C68AD
:1009C000121B0B46C969002902D00C689442F6D369
:1009D000002902D00C68A41A0C600260C161D861C1
:1009E00000BF10BD9422002030B50246164C21688D
:1009F000084604E0904200D103E00146C0690028A7
:100A0000F8D100BF002800D130BD814211D10E4C79
:100A10002468E4690C4D2C602C462468002C08D115
:100A200001240A4DAC600024094D2C600124094DBD
:100A30002C700368C469CC61C869002802D00468BE
:100A4000E418046000BFDFE794220020001001409A
:100A500098220020AD220020FFB581B005460E4649
:100A60001746E900114A12688818694600F0ADF986
:100A70000446002C02D1042005B0F0BD01202070F6
:100A80006660FFF7F9FBA060E760049820610A98B0
:100A90006061E900054A126888186946097800F023
:100AA000ABF9FFF765FF0020E6E700009022002089
:100AB000F8B504460E46E1000C4A126888186946EB
:100AC00000F083F90546002D01D10420F8BD022075
:100AD00028706E60E100054A126888186946097836
:100AE00000F08AF9FFF744FF0020EFE79022002092
:100AF000F8B51F480068002839D00027FFF7BCFB75
:100B000000901C4801680098FFF7E2FE064618486E
:100B1000056811E02868B04200D90FE02868361A4D
:100B20002868C7192C46ED69207C002804D00020D5
:100B300020742046FFF7D2FE002DEBD100BF0E48F7
:100B400000780E490978884209D10C480078401C89
:100B5000C0B20A490870022801D100200870074875
:100B60000078800006490F50FFF702FF00BFF8BD74
:100B70009422002098220020A4220020A5220020F8
:100B80009C22002010B51120FCF726FF10BD0000AC
:100B900070B500BF00232B4A05211F20FDF7B2FAD4
:100BA000054600BF2E46002E04D000BF3046FDF79C
:100BB00065FA00BF00BF00BF234A01212348FDF7AB
:100BC0007FFA044600BF2546002D04D000BF28460A
:100BD000FDF754FA00BF00BF00220121C9021B48E3
:100BE0000068FDF7EBFA044600BF2546002D04D04F
:100BF00000BF2846FDF742FA00BF00BF144A00219B
:100C00001448FDF75DFA044600BF2546002D04D0C8
:100C100000BF2846FDF732FA00BF00BF00220521C1
:100C2000C9020C480068FDF7C9FA044600BF254612
:100C3000002D04D000BF2846FDF720FA00BF00BFFA
:100C400070BD0000F8230020A1E00100400F020069
:100C500099E00100440F020070B504461D4610885B
:100C60001230A84201D90C2070BD11201688885579
:100C70001088401C10801020168888551088401C51
:100C800010800F2307E0E05C16888855581E43B299
:100C90001088401C1080002BF5DA0020E4E730B506
:100CA00004461088C01C984201D90C2030BD022097
:100CB000158848551088401C10800A201588485512
:100CC0001088401C108015884C551088401C1080DE
:100CD0000020EBE702460A70FF20000210400012DD
:100CE00048700220704702460A70FF200002104040
:100CF000001248700220704702460A70FF2000026E
:100D000010400012487002207047000038B50546B8
:100D100020480088204988423BD020480078401C69
:100D20001E4908701E48007B097888420FDB1D4968
:100D30001848008875DF0446002C07D018488069E1
:100D4000002803D0164881692046884721E000200A
:100D5000124908701248007C00280FD03B210D4832
:100D6000008876DF0446002C07D00D4880690028F3
:100D700003D00B4881692046884700BF0848406976
:100D8000002806D000200090054841696846884741
:100D900000BF38BD80220020FFFF00007E2200201F
:100DA000402600207622002010B5FEF7D7F8012853
:100DB00002D0032804D101E0002403E0012401E073
:100DC000022400BF00BF204610BD70B502460B468E
:100DD0005078401CC1B29078884200D10021107830
:100DE000884201D1002070BD1970507818267043D8
:100DF00055682C182046F6E741707047FFB583B060
:100E000015460D9F0C9E019700960222069B0499A1
:100E1000039800F019F8044600BF002C02D02046C9
:100E200007B0F0BD00BF0197009610222946069B2F
:100E3000039800F009F8044600BF002C01D02046BA
:100E4000EEE700BF0020EBE7FFB587B006461D4682
:100E5000109C002006902088059000274DE0B900E6
:100E6000706841180A88684682804988C1800022DB
:100E700002A901A865DF039000BF0398002802D0F3
:100E800003980BB0F0BD00BF6846017A0998814213
:100E900032D10698002801D0002000E00220009006
:100EA00020886946097A41180098091811988142EA
:100EB00001DD0C20E5E7069800280AD12088401CB7
:100EC00020802188089868542088401C20800120B8
:100ED00006902088421902A901A865DF039000BF8F
:100EE0000398002801D00398CBE700BF218868460B
:100EF000007A0818208000BF7F1C3088B842AEDC22
:100F0000069800280ED021880598401C081A80B247
:100F100004900498FF2801DD0C20B2E70498C1B2C8
:100F2000059829540020ACE70010003901789C088E
:100F3000861F0000010400001122002011DE0100C4
:100F400070230020902300200D1801000A180100D2
:100F50000F18010000060000000000000100000062
:100F600001000000C0250020800000005C26002059
:100F7000900F020000220020D000000004D10100E8
:100F800060100200D02200200817000020D10100CC
:100F9000FFFF000000000000000000000000000053
:100FA00000000000000000000024F400B9A521FBAF
:100FB000BD72C345A8A423B9F55E63C1000000005B
:100FC0000000000000000000000000000000000021
:100FD0000000000000000000000000000000000011
:100FE0000000000000000000000000000000000001
:100FF00000000000000000000000000000000000F1
:1010000000000000000000000000000000000000E0
:1010100000000000000000000000000000000000D0
:1010200000000000000000000000000000000000C0
:1010300000000000000000000000000000000000B0
:1010400000000000000000000000000000000000A0
:101050000000000000000000000000000000000090
:040000050001D0C165
:00000001FF
